{
  "contracts/XVTToken.sol": {
    "XVTToken": {
      "abi": [
        {
          "inputs": [
            {
              "internalType": "uint256",
              "name": "initialSupply",
              "type": "uint256"
            }
          ],
          "stateMutability": "nonpayable",
          "type": "constructor"
        },
        {
          "anonymous": false,
          "inputs": [
            {
              "indexed": true,
              "internalType": "uint8",
              "name": "groupId",
              "type": "uint8"
            },
            {
              "indexed": true,
              "internalType": "address",
              "name": "account",
              "type": "address"
            }
          ],
          "name": "AddedToGroup",
          "type": "event"
        },
        {
          "anonymous": false,
          "inputs": [
            {
              "indexed": true,
              "internalType": "address",
              "name": "owner",
              "type": "address"
            },
            {
              "indexed": true,
              "internalType": "address",
              "name": "spender",
              "type": "address"
            },
            {
              "indexed": false,
              "internalType": "uint256",
              "name": "value",
              "type": "uint256"
            }
          ],
          "name": "Approval",
          "type": "event"
        },
        {
          "anonymous": false,
          "inputs": [
            {
              "indexed": true,
              "internalType": "address",
              "name": "from",
              "type": "address"
            },
            {
              "indexed": true,
              "internalType": "address",
              "name": "to",
              "type": "address"
            },
            {
              "indexed": false,
              "internalType": "uint256",
              "name": "value",
              "type": "uint256"
            }
          ],
          "name": "MultiTransferPrevented",
          "type": "event"
        },
        {
          "anonymous": false,
          "inputs": [
            {
              "indexed": false,
              "internalType": "address",
              "name": "account",
              "type": "address"
            }
          ],
          "name": "Paused",
          "type": "event"
        },
        {
          "anonymous": false,
          "inputs": [
            {
              "indexed": true,
              "internalType": "uint8",
              "name": "groupId",
              "type": "uint8"
            },
            {
              "indexed": true,
              "internalType": "address",
              "name": "account",
              "type": "address"
            }
          ],
          "name": "RemovedFromGroup",
          "type": "event"
        },
        {
          "anonymous": false,
          "inputs": [
            {
              "indexed": true,
              "internalType": "bytes32",
              "name": "role",
              "type": "bytes32"
            },
            {
              "indexed": true,
              "internalType": "bytes32",
              "name": "previousAdminRole",
              "type": "bytes32"
            },
            {
              "indexed": true,
              "internalType": "bytes32",
              "name": "newAdminRole",
              "type": "bytes32"
            }
          ],
          "name": "RoleAdminChanged",
          "type": "event"
        },
        {
          "anonymous": false,
          "inputs": [
            {
              "indexed": true,
              "internalType": "bytes32",
              "name": "role",
              "type": "bytes32"
            },
            {
              "indexed": true,
              "internalType": "address",
              "name": "account",
              "type": "address"
            },
            {
              "indexed": true,
              "internalType": "address",
              "name": "sender",
              "type": "address"
            }
          ],
          "name": "RoleGranted",
          "type": "event"
        },
        {
          "anonymous": false,
          "inputs": [
            {
              "indexed": true,
              "internalType": "bytes32",
              "name": "role",
              "type": "bytes32"
            },
            {
              "indexed": true,
              "internalType": "address",
              "name": "account",
              "type": "address"
            },
            {
              "indexed": true,
              "internalType": "address",
              "name": "sender",
              "type": "address"
            }
          ],
          "name": "RoleRevoked",
          "type": "event"
        },
        {
          "anonymous": false,
          "inputs": [
            {
              "indexed": true,
              "internalType": "address",
              "name": "from",
              "type": "address"
            },
            {
              "indexed": true,
              "internalType": "address",
              "name": "to",
              "type": "address"
            },
            {
              "indexed": false,
              "internalType": "uint256",
              "name": "value",
              "type": "uint256"
            }
          ],
          "name": "Transfer",
          "type": "event"
        },
        {
          "anonymous": false,
          "inputs": [
            {
              "indexed": false,
              "internalType": "address",
              "name": "account",
              "type": "address"
            }
          ],
          "name": "Unpaused",
          "type": "event"
        },
        {
          "inputs": [],
          "name": "ADMIN_ROLE",
          "outputs": [
            {
              "internalType": "bytes32",
              "name": "",
              "type": "bytes32"
            }
          ],
          "stateMutability": "view",
          "type": "function"
        },
        {
          "inputs": [],
          "name": "ATTORNEY_ROLE",
          "outputs": [
            {
              "internalType": "bytes32",
              "name": "",
              "type": "bytes32"
            }
          ],
          "stateMutability": "view",
          "type": "function"
        },
        {
          "inputs": [],
          "name": "DEFAULT_ADMIN_ROLE",
          "outputs": [
            {
              "internalType": "bytes32",
              "name": "",
              "type": "bytes32"
            }
          ],
          "stateMutability": "view",
          "type": "function"
        },
        {
          "inputs": [],
          "name": "FROZEN",
          "outputs": [
            {
              "internalType": "uint8",
              "name": "",
              "type": "uint8"
            }
          ],
          "stateMutability": "view",
          "type": "function"
        },
        {
          "inputs": [],
          "name": "OPERATOR_ROLE",
          "outputs": [
            {
              "internalType": "bytes32",
              "name": "",
              "type": "bytes32"
            }
          ],
          "stateMutability": "view",
          "type": "function"
        },
        {
          "inputs": [],
          "name": "OWNER_ROLE",
          "outputs": [
            {
              "internalType": "bytes32",
              "name": "",
              "type": "bytes32"
            }
          ],
          "stateMutability": "view",
          "type": "function"
        },
        {
          "inputs": [],
          "name": "WHITELIST",
          "outputs": [
            {
              "internalType": "uint8",
              "name": "",
              "type": "uint8"
            }
          ],
          "stateMutability": "view",
          "type": "function"
        },
        {
          "inputs": [
            {
              "internalType": "address",
              "name": "newAdmin",
              "type": "address"
            }
          ],
          "name": "addAdmin",
          "outputs": [],
          "stateMutability": "nonpayable",
          "type": "function"
        },
        {
          "inputs": [
            {
              "internalType": "address",
              "name": "newAccount",
              "type": "address"
            }
          ],
          "name": "addAttorney",
          "outputs": [],
          "stateMutability": "nonpayable",
          "type": "function"
        },
        {
          "inputs": [
            {
              "internalType": "address",
              "name": "newOperator",
              "type": "address"
            }
          ],
          "name": "addOperator",
          "outputs": [],
          "stateMutability": "nonpayable",
          "type": "function"
        },
        {
          "inputs": [
            {
              "internalType": "address",
              "name": "account",
              "type": "address"
            }
          ],
          "name": "addToWhitelist",
          "outputs": [],
          "stateMutability": "nonpayable",
          "type": "function"
        },
        {
          "inputs": [
            {
              "internalType": "address",
              "name": "owner",
              "type": "address"
            },
            {
              "internalType": "address",
              "name": "spender",
              "type": "address"
            }
          ],
          "name": "allowance",
          "outputs": [
            {
              "internalType": "uint256",
              "name": "",
              "type": "uint256"
            }
          ],
          "stateMutability": "view",
          "type": "function"
        },
        {
          "inputs": [
            {
              "internalType": "address",
              "name": "spender",
              "type": "address"
            },
            {
              "internalType": "uint256",
              "name": "amount",
              "type": "uint256"
            }
          ],
          "name": "approve",
          "outputs": [
            {
              "internalType": "bool",
              "name": "",
              "type": "bool"
            }
          ],
          "stateMutability": "nonpayable",
          "type": "function"
        },
        {
          "inputs": [
            {
              "internalType": "address",
              "name": "account",
              "type": "address"
            }
          ],
          "name": "balanceOf",
          "outputs": [
            {
              "internalType": "uint256",
              "name": "",
              "type": "uint256"
            }
          ],
          "stateMutability": "view",
          "type": "function"
        },
        {
          "inputs": [
            {
              "internalType": "address",
              "name": "from",
              "type": "address"
            },
            {
              "internalType": "uint256",
              "name": "amount",
              "type": "uint256"
            }
          ],
          "name": "burn",
          "outputs": [],
          "stateMutability": "nonpayable",
          "type": "function"
        },
        {
          "inputs": [],
          "name": "decimals",
          "outputs": [
            {
              "internalType": "uint8",
              "name": "",
              "type": "uint8"
            }
          ],
          "stateMutability": "view",
          "type": "function"
        },
        {
          "inputs": [
            {
              "internalType": "address",
              "name": "spender",
              "type": "address"
            },
            {
              "internalType": "uint256",
              "name": "subtractedValue",
              "type": "uint256"
            }
          ],
          "name": "decreaseAllowance",
          "outputs": [
            {
              "internalType": "bool",
              "name": "",
              "type": "bool"
            }
          ],
          "stateMutability": "nonpayable",
          "type": "function"
        },
        {
          "inputs": [
            {
              "internalType": "address",
              "name": "account",
              "type": "address"
            }
          ],
          "name": "freeze",
          "outputs": [],
          "stateMutability": "nonpayable",
          "type": "function"
        },
        {
          "inputs": [
            {
              "internalType": "bytes32",
              "name": "role",
              "type": "bytes32"
            }
          ],
          "name": "getRoleAdmin",
          "outputs": [
            {
              "internalType": "bytes32",
              "name": "",
              "type": "bytes32"
            }
          ],
          "stateMutability": "view",
          "type": "function"
        },
        {
          "inputs": [
            {
              "internalType": "bytes32",
              "name": "role",
              "type": "bytes32"
            },
            {
              "internalType": "address",
              "name": "account",
              "type": "address"
            }
          ],
          "name": "grantRole",
          "outputs": [],
          "stateMutability": "nonpayable",
          "type": "function"
        },
        {
          "inputs": [
            {
              "internalType": "bytes32",
              "name": "role",
              "type": "bytes32"
            },
            {
              "internalType": "address",
              "name": "account",
              "type": "address"
            }
          ],
          "name": "hasRole",
          "outputs": [
            {
              "internalType": "bool",
              "name": "",
              "type": "bool"
            }
          ],
          "stateMutability": "view",
          "type": "function"
        },
        {
          "inputs": [
            {
              "internalType": "address",
              "name": "spender",
              "type": "address"
            },
            {
              "internalType": "uint256",
              "name": "addedValue",
              "type": "uint256"
            }
          ],
          "name": "increaseAllowance",
          "outputs": [
            {
              "internalType": "bool",
              "name": "",
              "type": "bool"
            }
          ],
          "stateMutability": "nonpayable",
          "type": "function"
        },
        {
          "inputs": [
            {
              "internalType": "address",
              "name": "account",
              "type": "address"
            }
          ],
          "name": "isFrozen",
          "outputs": [
            {
              "internalType": "bool",
              "name": "",
              "type": "bool"
            }
          ],
          "stateMutability": "view",
          "type": "function"
        },
        {
          "inputs": [
            {
              "internalType": "address",
              "name": "account",
              "type": "address"
            }
          ],
          "name": "isWhitelisted",
          "outputs": [
            {
              "internalType": "bool",
              "name": "",
              "type": "bool"
            }
          ],
          "stateMutability": "view",
          "type": "function"
        },
        {
          "inputs": [
            {
              "internalType": "address[]",
              "name": "to",
              "type": "address[]"
            },
            {
              "internalType": "uint256[]",
              "name": "amount",
              "type": "uint256[]"
            }
          ],
          "name": "multiTransfer",
          "outputs": [
            {
              "internalType": "bool",
              "name": "",
              "type": "bool"
            }
          ],
          "stateMutability": "nonpayable",
          "type": "function"
        },
        {
          "inputs": [],
          "name": "name",
          "outputs": [
            {
              "internalType": "string",
              "name": "",
              "type": "string"
            }
          ],
          "stateMutability": "view",
          "type": "function"
        },
        {
          "inputs": [],
          "name": "pause",
          "outputs": [],
          "stateMutability": "nonpayable",
          "type": "function"
        },
        {
          "inputs": [],
          "name": "paused",
          "outputs": [
            {
              "internalType": "bool",
              "name": "",
              "type": "bool"
            }
          ],
          "stateMutability": "view",
          "type": "function"
        },
        {
          "inputs": [
            {
              "internalType": "address",
              "name": "account",
              "type": "address"
            }
          ],
          "name": "removeFromWhitelist",
          "outputs": [],
          "stateMutability": "nonpayable",
          "type": "function"
        },
        {
          "inputs": [
            {
              "internalType": "bytes32",
              "name": "role",
              "type": "bytes32"
            },
            {
              "internalType": "address",
              "name": "account",
              "type": "address"
            }
          ],
          "name": "renounceRole",
          "outputs": [],
          "stateMutability": "nonpayable",
          "type": "function"
        },
        {
          "inputs": [
            {
              "internalType": "address",
              "name": "newAdmin",
              "type": "address"
            }
          ],
          "name": "revokeAdmin",
          "outputs": [],
          "stateMutability": "nonpayable",
          "type": "function"
        },
        {
          "inputs": [
            {
              "internalType": "address",
              "name": "newAccount",
              "type": "address"
            }
          ],
          "name": "revokeAttorney",
          "outputs": [],
          "stateMutability": "nonpayable",
          "type": "function"
        },
        {
          "inputs": [
            {
              "internalType": "address",
              "name": "newOperator",
              "type": "address"
            }
          ],
          "name": "revokeOperator",
          "outputs": [],
          "stateMutability": "nonpayable",
          "type": "function"
        },
        {
          "inputs": [
            {
              "internalType": "bytes32",
              "name": "role",
              "type": "bytes32"
            },
            {
              "internalType": "address",
              "name": "account",
              "type": "address"
            }
          ],
          "name": "revokeRole",
          "outputs": [],
          "stateMutability": "nonpayable",
          "type": "function"
        },
        {
          "inputs": [
            {
              "internalType": "bytes4",
              "name": "interfaceId",
              "type": "bytes4"
            }
          ],
          "name": "supportsInterface",
          "outputs": [
            {
              "internalType": "bool",
              "name": "",
              "type": "bool"
            }
          ],
          "stateMutability": "view",
          "type": "function"
        },
        {
          "inputs": [],
          "name": "symbol",
          "outputs": [
            {
              "internalType": "string",
              "name": "",
              "type": "string"
            }
          ],
          "stateMutability": "view",
          "type": "function"
        },
        {
          "inputs": [],
          "name": "totalSupply",
          "outputs": [
            {
              "internalType": "uint256",
              "name": "",
              "type": "uint256"
            }
          ],
          "stateMutability": "view",
          "type": "function"
        },
        {
          "inputs": [
            {
              "internalType": "address",
              "name": "to",
              "type": "address"
            },
            {
              "internalType": "uint256",
              "name": "amount",
              "type": "uint256"
            }
          ],
          "name": "transfer",
          "outputs": [
            {
              "internalType": "bool",
              "name": "",
              "type": "bool"
            }
          ],
          "stateMutability": "nonpayable",
          "type": "function"
        },
        {
          "inputs": [
            {
              "internalType": "address",
              "name": "from",
              "type": "address"
            },
            {
              "internalType": "address",
              "name": "to",
              "type": "address"
            },
            {
              "internalType": "uint256",
              "name": "amount",
              "type": "uint256"
            }
          ],
          "name": "transferFrom",
          "outputs": [
            {
              "internalType": "bool",
              "name": "",
              "type": "bool"
            }
          ],
          "stateMutability": "nonpayable",
          "type": "function"
        },
        {
          "inputs": [],
          "name": "unPause",
          "outputs": [],
          "stateMutability": "nonpayable",
          "type": "function"
        },
        {
          "inputs": [
            {
              "internalType": "address",
              "name": "account",
              "type": "address"
            }
          ],
          "name": "unfreeze",
          "outputs": [],
          "stateMutability": "nonpayable",
          "type": "function"
        }
      ],
      "evm": {
        "bytecode": {
          "linkReferences": {},
          "object": "60806040523480156200001157600080fd5b506040516200287d3803806200287d833981016040819052620000349162000524565b6040518060400160405280600381526020016216159560ea1b8152506040518060400160405280600381526020016216159560ea1b8152508160039080519060200190620000849291906200047e565b5080516200009a9060049060208401906200047e565b50506006805460ff1916905550620000b460003362000144565b620000cf6000805160206200281d8339815191523362000144565b620000ea6000805160206200285d8339815191523362000144565b620001056000805160206200283d8339815191523362000144565b620001317fed5e91ce76fc83bd4bf51d24916a0b6fa9b34212005c44254b4cb64e4bc07f3a3362000144565b6200013d338262000154565b506200067a565b62000150828262000232565b5050565b6001600160a01b038216620001865760405162461bcd60e51b81526004016200017d9062000567565b60405180910390fd5b6200019460008383620002be565b8060026000828254620001a8919062000618565b90915550506001600160a01b03821660009081526020819052604081208054839290620001d790849062000618565b90915550506040516001600160a01b038316906000907fddf252ad1be2c89b69c2b068fc378daa952ba7f163c4a11628f55a4df523b3ef906200021c9085906200060f565b60405180910390a36200015060008383620003a9565b6200023e8282620003ae565b620001505760008281526005602090815260408083206001600160a01b03851684529091529020805460ff191660011790556200027a620003d9565b6001600160a01b0316816001600160a01b0316837f2f8788117e7eff1d82e926ec794901d17c78024a50270940304540a733656f0d60405160405180910390a45050565b620002c8620003dd565b15620002e85760405162461bcd60e51b81526004016200017d906200053d565b620002f333620003e6565b15620003135760405162461bcd60e51b81526004016200017d906200059e565b6200032e6000805160206200281d83398151915233620003ae565b80620003505750620003506000805160206200285d83398151915233620003ae565b80620003725750620003726000805160206200283d83398151915233620003ae565b620003915760405162461bcd60e51b81526004016200017d90620005c7565b620003a9838383620003a960201b6200093a1760201c565b505050565b60009182526005602090815260408084206001600160a01b0393909316845291905290205460ff1690565b3390565b60065460ff1690565b6000620003f5600283620003fb565b92915050565b60006200041a838360076200042160201b62000f1b179092919060201c565b9392505050565b60ff821660009081526020849052604081206200043f818462000448565b95945050505050565b60006001600160a01b0382166200045e57600080fd5b506001600160a01b03166000908152602091909152604090205460ff1690565b8280546200048c906200063d565b90600052602060002090601f016020900481019282620004b05760008555620004fb565b82601f10620004cb57805160ff1916838001178555620004fb565b82800160010185558215620004fb579182015b82811115620004fb578251825591602001919060010190620004de565b50620005099291506200050d565b5090565b5b808211156200050957600081556001016200050e565b60006020828403121562000536578081fd5b5051919050565b60208082526010908201526f14185d5cd8589b194e881c185d5cd95960821b604082015260600190565b6020808252601f908201527f45524332303a206d696e7420746f20746865207a65726f206164647265737300604082015260600190565b6020808252600f908201526e119c99595e9959081858d8dbdd5b9d608a1b604082015260600190565b60208082526028908201527f416363657373207265737472696374656420746f20706172746963756c6172206040820152676163636f756e747360c01b606082015260800190565b90815260200190565b600082198211156200063857634e487b7160e01b81526011600452602481fd5b500190565b6002810460018216806200065257607f821691505b602082108114156200067457634e487b7160e01b600052602260045260246000fd5b50919050565b612193806200068a6000396000f3fe608060405234801561001057600080fd5b50600436106102535760003560e01c80637048027511610146578063a217fddf116100c3578063e43252d711610087578063e43252d7146104b7578063e58378bb146104ca578063e5839836146104d2578063f5b541a6146104e5578063f7b188a5146104ed578063fad8b32a146104f557610253565b8063a217fddf14610463578063a457c2d71461046b578063a9059cbb1461047e578063d547741f14610491578063dd62ed3e146104a457610253565b80638d1fdf2f1161010a5780638d1fdf2f1461040f57806391d148541461042257806395d89b41146104355780639870d7fe1461043d5780639dc29fac1461045057610253565b806370480275146103c657806370a08231146103d957806375b238fc146103ec5780638456cb59146103f45780638ab1d681146103fc57610253565b80632f2ff15d116101d45780633af32abf116101985780633af32abf1461037d5780633b5764eb146103905780634208c09f1461039857806345c8b1a6146103ab5780635c975abb146103be57610253565b80632f2ff15d14610329578063313ce5671461033c57806336568abe14610344578063380a75bf14610357578063395093511461036a57610253565b80631bb7cc991161021b5780631bb7cc99146102c65780631e89d545146102db57806323b872dd146102ee578063248a9ca3146103015780632d3456701461031457610253565b806301ffc9a71461025857806306fdde0314610281578063095ea7b3146102965780630d5b1fb4146102a957806318160ddd146102be575b600080fd5b61026b610266366004611b16565b610508565b6040516102789190611bc7565b60405180910390f35b610289610535565b6040516102789190611bdb565b61026b6102a4366004611a4a565b6105c7565b6102b16105f6565b6040516102789190611bd2565b6102b1610608565b6102ce61060e565b6040516102789190611ff2565b61026b6102e9366004611a73565b610613565b61026b6102fc366004611a0f565b610881565b6102b161030f366004611adc565b6108af565b6103276103223660046119c3565b6108c4565b005b610327610337366004611af4565b61091e565b6102ce61093f565b610327610352366004611af4565b610944565b6103276103653660046119c3565b610986565b61026b610378366004611a4a565b6109dc565b61026b61038b3660046119c3565b610a02565b6102ce610a0f565b6103276103a63660046119c3565b610a14565b6103276103b93660046119c3565b610a6a565b61026b610ad8565b6103276103d43660046119c3565b610ae1565b6102b16103e73660046119c3565b610b37565b6102b1610b52565b610327610b64565b61032761040a3660046119c3565b610b87565b61032761041d3660046119c3565b610bf5565b61026b610430366004611af4565b610c63565b610289610c8e565b61032761044b3660046119c3565b610c9d565b61032761045e366004611a4a565b610cf3565b6102b1610d60565b61026b610479366004611a4a565b610d65565b61026b61048c366004611a4a565b610d8b565b61032761049f366004611af4565b610dad565b6102b16104b23660046119dd565b610dc9565b6103276104c53660046119c3565b610df4565b6102b1610e62565b61026b6104e03660046119c3565b610e86565b6102b1610e93565b610327610ea5565b6103276105033660046119c3565b610ec5565b60006001600160e01b03198216637965db0b60e01b148061052d575061052d82610f37565b90505b919050565b60606003805461054490612091565b80601f016020809104026020016040519081016040528092919081815260200182805461057090612091565b80156105bd5780601f10610592576101008083540402835291602001916105bd565b820191906000526020600020905b8154815290600101906020018083116105a057829003601f168201915b5050505050905090565b600060008051602061213e8339815191526105e181610f50565b60006105ed8585610f61565b95945050505050565b6000805160206120fe83398151915281565b60025490565b600181565b600061061d610ad8565b156106435760405162461bcd60e51b815260040161063a90611df9565b60405180910390fd5b61064c33610e86565b156106695760405162461bcd60e51b815260040161063a90611f81565b6106937fb19546dff01e856fb3f010c267a7b1c60363cf8a4664e21cc89c26224620214e33610c63565b806106b157506106b160008051602061213e83398151915233610c63565b806106cf57506106cf60008051602061211e83398151915233610c63565b6106eb5760405162461bcd60e51b815260040161063a90611faa565b83158015906106f957508382145b6107155760405162461bcd60e51b815260040161063a90611db5565b60005b848110156108755761075886868381811061074357634e487b7160e01b600052603260045260246000fd5b90506020020160208101906104e091906119c3565b6107c6576107c13387878481811061078057634e487b7160e01b600052603260045260246000fd5b905060200201602081019061079591906119c3565b8686858181106107b557634e487b7160e01b600052603260045260246000fd5b90506020020135610f79565b610863565b8585828181106107e657634e487b7160e01b600052603260045260246000fd5b90506020020160208101906107fb91906119c3565b6001600160a01b0316337f57b832b60cac2d336bd974f846b5d4c4af5aeeeb2dbd0f8cbd3ea89fc9078eea86868581811061084657634e487b7160e01b600052603260045260246000fd5b9050602002013560405161085a9190611bd2565b60405180910390a35b8061086d816120cc565b915050610718565b50600195945050505050565b60008061088c6110a3565b90506108998582856110a7565b6108a4858585610f79565b506001949350505050565b60009081526005602052604090206001015490565b6108cd33610e86565b156108ea5760405162461bcd60e51b815260040161063a90611f81565b60008051602061213e83398151915261090281610f50565b61091a60008051602061213e83398151915283610dad565b5050565b610927826108af565b61093081610f50565b61093a83836110eb565b505050565b601290565b61094c6110a3565b6001600160a01b0316816001600160a01b03161461097c5760405162461bcd60e51b815260040161063a90611f32565b61091a8282611172565b61098f33610e86565b156109ac5760405162461bcd60e51b815260040161063a90611f81565b60008051602061213e8339815191526109c481610f50565b61091a6000805160206120fe8339815191528361091e565b600060008051602061213e8339815191526109f681610f50565b60006105ed85856111f7565b600061052d600183611223565b600281565b610a1d33610e86565b15610a3a5760405162461bcd60e51b815260040161063a90611f81565b60008051602061213e833981519152610a5281610f50565b61091a6000805160206120fe83398151915283610dad565b610a72610ad8565b15610a8f5760405162461bcd60e51b815260040161063a90611df9565b610a9833610e86565b15610ab55760405162461bcd60e51b815260040161063a90611f81565b60008051602061213e833981519152610acd81610f50565b61091a600283611238565b60065460ff1690565b610aea33610e86565b15610b075760405162461bcd60e51b815260040161063a90611f81565b60008051602061213e833981519152610b1f81610f50565b61091a60008051602061213e8339815191528361091e565b6001600160a01b031660009081526020819052604090205490565b60008051602061213e83398151915281565b6000805160206120fe833981519152610b7c81610f50565b610b84611281565b50565b610b8f610ad8565b15610bac5760405162461bcd60e51b815260040161063a90611df9565b610bb533610e86565b15610bd25760405162461bcd60e51b815260040161063a90611f81565b60008051602061213e833981519152610bea81610f50565b61091a600183611238565b610bfd610ad8565b15610c1a5760405162461bcd60e51b815260040161063a90611df9565b610c2333610e86565b15610c405760405162461bcd60e51b815260040161063a90611f81565b60008051602061213e833981519152610c5881610f50565b61091a6002836112f3565b60009182526005602090815260408084206001600160a01b0393909316845291905290205460ff1690565b60606004805461054490612091565b610ca633610e86565b15610cc35760405162461bcd60e51b815260040161063a90611f81565b60008051602061213e833981519152610cdb81610f50565b61091a60008051602061211e8339815191528361091e565b610cfb610ad8565b15610d185760405162461bcd60e51b815260040161063a90611df9565b610d2133610e86565b15610d3e5760405162461bcd60e51b815260040161063a90611f81565b60008051602061213e833981519152610d5681610f50565b61093a838361133c565b600081565b600060008051602061213e833981519152610d7f81610f50565b60006105ed858561142d565b600080610d966110a3565b9050610da3818585610f79565b5060019392505050565b610db6826108af565b610dbf81610f50565b61093a8383611172565b6001600160a01b03918216600090815260016020908152604080832093909416825291909152205490565b610dfc610ad8565b15610e195760405162461bcd60e51b815260040161063a90611df9565b610e2233610e86565b15610e3f5760405162461bcd60e51b815260040161063a90611f81565b60008051602061213e833981519152610e5781610f50565b61091a6001836112f3565b7fb19546dff01e856fb3f010c267a7b1c60363cf8a4664e21cc89c26224620214e81565b600061052d600283611223565b60008051602061211e83398151915281565b6000805160206120fe833981519152610ebd81610f50565b610b84611475565b610ece33610e86565b15610eeb5760405162461bcd60e51b815260040161063a90611f81565b60008051602061213e833981519152610f0381610f50565b61091a60008051602061211e83398151915283610dad565b60ff821660009081526020849052604081206105ed81846114cc565b6001600160e01b031981166301ffc9a760e01b14919050565b610b8481610f5c6110a3565b611501565b600080610f6c6110a3565b9050610da3818585611565565b6001600160a01b038316610f9f5760405162461bcd60e51b815260040161063a90611e64565b6001600160a01b038216610fc55760405162461bcd60e51b815260040161063a90611c43565b610fd0838383611619565b6001600160a01b038316600090815260208190526040902054818110156110095760405162461bcd60e51b815260040161063a90611d6f565b6001600160a01b03808516600090815260208190526040808220858503905591851681529081208054849290611040908490612000565b92505081905550826001600160a01b0316846001600160a01b03167fddf252ad1be2c89b69c2b068fc378daa952ba7f163c4a11628f55a4df523b3ef8460405161108a9190611bd2565b60405180910390a361109d84848461093a565b50505050565b3390565b60006110b38484610dc9565b9050600019811461109d57818110156110de5760405162461bcd60e51b815260040161063a90611d38565b61109d8484848403611565565b6110f58282610c63565b61091a5760008281526005602090815260408083206001600160a01b03851684529091529020805460ff1916600117905561112e6110a3565b6001600160a01b0316816001600160a01b0316837f2f8788117e7eff1d82e926ec794901d17c78024a50270940304540a733656f0d60405160405180910390a45050565b61117c8282610c63565b1561091a5760008281526005602090815260408083206001600160a01b03851684529091529020805460ff191690556111b36110a3565b6001600160a01b0316816001600160a01b0316837ff6391f5c32d9c69d2a47ea670b442974b53935d1edc7fd64eb21e047a839171b60405160405180910390a45050565b6000806112026110a3565b9050610da38185856112148589610dc9565b61121e9190612000565b611565565b600061123160078484610f1b565b9392505050565b611244600783836116f1565b6040516001600160a01b0382169060ff8416907f0e1900eb0958d3192c4824b787e78e8b534e429190d9d837ecbfb6257a8a1b1c90600090a35050565b611289610ad8565b156112a65760405162461bcd60e51b815260040161063a90611df9565b6006805460ff191660011790557f62e78cea01bee320cd4e420270b5ea74000d11b0c9f74754ebdbfc544b05a2586112dc6110a3565b6040516112e99190611bb3565b60405180910390a1565b6112ff6007838361174f565b6040516001600160a01b0382169060ff8416907f108cdba04fa22e3af2c83669b3a439bae9df498af451d1b1a0a7da5453c97bce90600090a35050565b6001600160a01b0382166113625760405162461bcd60e51b815260040161063a90611e23565b61136e82600083611619565b6001600160a01b038216600090815260208190526040902054818110156113a75760405162461bcd60e51b815260040161063a90611cb4565b6001600160a01b03831660009081526020819052604081208383039055600280548492906113d6908490612037565b90915550506040516000906001600160a01b038516907fddf252ad1be2c89b69c2b068fc378daa952ba7f163c4a11628f55a4df523b3ef90611419908690611bd2565b60405180910390a361093a8360008461093a565b6000806114386110a3565b905060006114468286610dc9565b9050838110156114685760405162461bcd60e51b815260040161063a90611eed565b6108a48286868403611565565b61147d610ad8565b6114995760405162461bcd60e51b815260040161063a90611c86565b6006805460ff191690557f5db9ee0a495bf2e6ff9c91a7834c1ba4fdd244a5e8aa4e537bd38aeae4b073aa6112dc6110a3565b60006001600160a01b0382166114e157600080fd5b506001600160a01b03166000908152602091909152604090205460ff1690565b61150b8282610c63565b61091a57611523816001600160a01b031660146117b1565b61152e8360206117b1565b60405160200161153f929190611b3e565b60408051601f198184030181529082905262461bcd60e51b825261063a91600401611bdb565b6001600160a01b03831661158b5760405162461bcd60e51b815260040161063a90611ea9565b6001600160a01b0382166115b15760405162461bcd60e51b815260040161063a90611cf6565b6001600160a01b0380841660008181526001602090815260408083209487168084529490915290819020849055517f8c5be1e5ebec7d5bd14f71427d1e84f3dd0314c0f7b2291e5b200ac8c7c3b9259061160c908590611bd2565b60405180910390a3505050565b611621610ad8565b1561163e5760405162461bcd60e51b815260040161063a90611df9565b61164733610e86565b156116645760405162461bcd60e51b815260040161063a90611f81565b61168e7fb19546dff01e856fb3f010c267a7b1c60363cf8a4664e21cc89c26224620214e33610c63565b806116ac57506116ac60008051602061213e83398151915233610c63565b806116ca57506116ca60008051602061211e83398151915233610c63565b6116e65760405162461bcd60e51b815260040161063a90611faa565b61093a83838361093a565b60ff821660009081526020849052604090206001600160a01b03821661171657600080fd5b61172081836114cc565b61172957600080fd5b6001600160a01b03909116600090815260209190915260409020805460ff191690555050565b60ff821660009081526020849052604090206001600160a01b03821661177457600080fd5b61177e81836114cc565b1561178857600080fd5b6001600160a01b03909116600090815260209190915260409020805460ff191660011790555050565b606060006117c0836002612018565b6117cb906002612000565b67ffffffffffffffff8111156117f157634e487b7160e01b600052604160045260246000fd5b6040519080825280601f01601f19166020018201604052801561181b576020820181803683370190505b509050600360fc1b8160008151811061184457634e487b7160e01b600052603260045260246000fd5b60200101906001600160f81b031916908160001a905350600f60fb1b8160018151811061188157634e487b7160e01b600052603260045260246000fd5b60200101906001600160f81b031916908160001a90535060006118a5846002612018565b6118b0906001612000565b90505b6001811115611944576f181899199a1a9b1b9c1cb0b131b232b360811b85600f16601081106118f257634e487b7160e01b600052603260045260246000fd5b1a60f81b82828151811061191657634e487b7160e01b600052603260045260246000fd5b60200101906001600160f81b031916908160001a90535060049490941c9361193d8161207a565b90506118b3565b5083156112315760405162461bcd60e51b815260040161063a90611c0e565b80356001600160a01b038116811461053057600080fd5b60008083601f84011261198b578182fd5b50813567ffffffffffffffff8111156119a2578182fd5b60208301915083602080830285010111156119bc57600080fd5b9250929050565b6000602082840312156119d4578081fd5b61123182611963565b600080604083850312156119ef578081fd5b6119f883611963565b9150611a0660208401611963565b90509250929050565b600080600060608486031215611a23578081fd5b611a2c84611963565b9250611a3a60208501611963565b9150604084013590509250925092565b60008060408385031215611a5c578182fd5b611a6583611963565b946020939093013593505050565b60008060008060408587031215611a88578081fd5b843567ffffffffffffffff80821115611a9f578283fd5b611aab8883890161197a565b90965094506020870135915080821115611ac3578283fd5b50611ad08782880161197a565b95989497509550505050565b600060208284031215611aed578081fd5b5035919050565b60008060408385031215611b06578182fd5b82359150611a0660208401611963565b600060208284031215611b27578081fd5b81356001600160e01b031981168114611231578182fd5b60007f416363657373436f6e74726f6c3a206163636f756e742000000000000000000082528351611b7681601785016020880161204e565b7001034b99036b4b9b9b4b733903937b6329607d1b6017918401918201528351611ba781602884016020880161204e565b01602801949350505050565b6001600160a01b0391909116815260200190565b901515815260200190565b90815260200190565b6000602082528251806020840152611bfa81604085016020870161204e565b601f01601f19169190910160400192915050565b6020808252818101527f537472696e67733a20686578206c656e67746820696e73756666696369656e74604082015260600190565b60208082526023908201527f45524332303a207472616e7366657220746f20746865207a65726f206164647260408201526265737360e81b606082015260800190565b60208082526014908201527314185d5cd8589b194e881b9bdd081c185d5cd95960621b604082015260600190565b60208082526022908201527f45524332303a206275726e20616d6f756e7420657863656564732062616c616e604082015261636560f01b606082015260800190565b60208082526022908201527f45524332303a20617070726f766520746f20746865207a65726f206164647265604082015261737360f01b606082015260800190565b6020808252601d908201527f45524332303a20696e73756666696369656e7420616c6c6f77616e6365000000604082015260600190565b60208082526026908201527f45524332303a207472616e7366657220616d6f756e7420657863656564732062604082015265616c616e636560d01b606082015260800190565b60208082526024908201527f456d707479206172726179206f72206172726179206c656e677468206d69736d6040820152630c2e8c6d60e31b606082015260800190565b60208082526010908201526f14185d5cd8589b194e881c185d5cd95960821b604082015260600190565b60208082526021908201527f45524332303a206275726e2066726f6d20746865207a65726f206164647265736040820152607360f81b606082015260800190565b60208082526025908201527f45524332303a207472616e736665722066726f6d20746865207a65726f206164604082015264647265737360d81b606082015260800190565b60208082526024908201527f45524332303a20617070726f76652066726f6d20746865207a65726f206164646040820152637265737360e01b606082015260800190565b60208082526025908201527f45524332303a2064656372656173656420616c6c6f77616e63652062656c6f77604082015264207a65726f60d81b606082015260800190565b6020808252602f908201527f416363657373436f6e74726f6c3a2063616e206f6e6c792072656e6f756e636560408201526e103937b632b9903337b91039b2b63360891b606082015260800190565b6020808252600f908201526e119c99595e9959081858d8dbdd5b9d608a1b604082015260600190565b60208082526028908201527f416363657373207265737472696374656420746f20706172746963756c6172206040820152676163636f756e747360c01b606082015260800190565b60ff91909116815260200190565b60008219821115612013576120136120e7565b500190565b6000816000190483118215151615612032576120326120e7565b500290565b600082821015612049576120496120e7565b500390565b60005b83811015612069578181015183820152602001612051565b8381111561109d5750506000910152565b600081612089576120896120e7565b506000190190565b6002810460018216806120a557607f821691505b602082108114156120c657634e487b7160e01b600052602260045260246000fd5b50919050565b60006000198214156120e0576120e06120e7565b5060010190565b634e487b7160e01b600052601160045260246000fdfeed5e91ce76fc83bd4bf51d24916a0b6fa9b34212005c44254b4cb64e4bc07f3a97667070c54ef182b0f5858b034beac1b6f3089aa2d3188bb1e8929f4fa9b929a49807205ce4d355092ef5a8a18f56e8913cf4a201fbe287825b095693c21775a2646970667358221220396b6dc0de3605261d29636efbcc704d45497a114475bc875f452bdd2a51cdd464736f6c63430008000033b19546dff01e856fb3f010c267a7b1c60363cf8a4664e21cc89c26224620214e97667070c54ef182b0f5858b034beac1b6f3089aa2d3188bb1e8929f4fa9b929a49807205ce4d355092ef5a8a18f56e8913cf4a201fbe287825b095693c21775",
          "opcodes": "PUSH1 0x80 PUSH1 0x40 MSTORE CALLVALUE DUP1 ISZERO PUSH3 0x11 JUMPI PUSH1 0x0 DUP1 REVERT JUMPDEST POP PUSH1 0x40 MLOAD PUSH3 0x287D CODESIZE SUB DUP1 PUSH3 0x287D DUP4 CODECOPY DUP2 ADD PUSH1 0x40 DUP2 SWAP1 MSTORE PUSH3 0x34 SWAP2 PUSH3 0x524 JUMP JUMPDEST PUSH1 0x40 MLOAD DUP1 PUSH1 0x40 ADD PUSH1 0x40 MSTORE DUP1 PUSH1 0x3 DUP2 MSTORE PUSH1 0x20 ADD PUSH3 0x161595 PUSH1 0xEA SHL DUP2 MSTORE POP PUSH1 0x40 MLOAD DUP1 PUSH1 0x40 ADD PUSH1 0x40 MSTORE DUP1 PUSH1 0x3 DUP2 MSTORE PUSH1 0x20 ADD PUSH3 0x161595 PUSH1 0xEA SHL DUP2 MSTORE POP DUP2 PUSH1 0x3 SWAP1 DUP1 MLOAD SWAP1 PUSH1 0x20 ADD SWAP1 PUSH3 0x84 SWAP3 SWAP2 SWAP1 PUSH3 0x47E JUMP JUMPDEST POP DUP1 MLOAD PUSH3 0x9A SWAP1 PUSH1 0x4 SWAP1 PUSH1 0x20 DUP5 ADD SWAP1 PUSH3 0x47E JUMP JUMPDEST POP POP PUSH1 0x6 DUP1 SLOAD PUSH1 0xFF NOT AND SWAP1 SSTORE POP PUSH3 0xB4 PUSH1 0x0 CALLER PUSH3 0x144 JUMP JUMPDEST PUSH3 0xCF PUSH1 0x0 DUP1 MLOAD PUSH1 0x20 PUSH3 0x281D DUP4 CODECOPY DUP2 MLOAD SWAP2 MSTORE CALLER PUSH3 0x144 JUMP JUMPDEST PUSH3 0xEA PUSH1 0x0 DUP1 MLOAD PUSH1 0x20 PUSH3 0x285D DUP4 CODECOPY DUP2 MLOAD SWAP2 MSTORE CALLER PUSH3 0x144 JUMP JUMPDEST PUSH3 0x105 PUSH1 0x0 DUP1 MLOAD PUSH1 0x20 PUSH3 0x283D DUP4 CODECOPY DUP2 MLOAD SWAP2 MSTORE CALLER PUSH3 0x144 JUMP JUMPDEST PUSH3 0x131 PUSH32 0xED5E91CE76FC83BD4BF51D24916A0B6FA9B34212005C44254B4CB64E4BC07F3A CALLER PUSH3 0x144 JUMP JUMPDEST PUSH3 0x13D CALLER DUP3 PUSH3 0x154 JUMP JUMPDEST POP PUSH3 0x67A JUMP JUMPDEST PUSH3 0x150 DUP3 DUP3 PUSH3 0x232 JUMP JUMPDEST POP POP JUMP JUMPDEST PUSH1 0x1 PUSH1 0x1 PUSH1 0xA0 SHL SUB DUP3 AND PUSH3 0x186 JUMPI PUSH1 0x40 MLOAD PUSH3 0x461BCD PUSH1 0xE5 SHL DUP2 MSTORE PUSH1 0x4 ADD PUSH3 0x17D SWAP1 PUSH3 0x567 JUMP JUMPDEST PUSH1 0x40 MLOAD DUP1 SWAP2 SUB SWAP1 REVERT JUMPDEST PUSH3 0x194 PUSH1 0x0 DUP4 DUP4 PUSH3 0x2BE JUMP JUMPDEST DUP1 PUSH1 0x2 PUSH1 0x0 DUP3 DUP3 SLOAD PUSH3 0x1A8 SWAP2 SWAP1 PUSH3 0x618 JUMP JUMPDEST SWAP1 SWAP2 SSTORE POP POP PUSH1 0x1 PUSH1 0x1 PUSH1 0xA0 SHL SUB DUP3 AND PUSH1 0x0 SWAP1 DUP2 MSTORE PUSH1 0x20 DUP2 SWAP1 MSTORE PUSH1 0x40 DUP2 KECCAK256 DUP1 SLOAD DUP4 SWAP3 SWAP1 PUSH3 0x1D7 SWAP1 DUP5 SWAP1 PUSH3 0x618 JUMP JUMPDEST SWAP1 SWAP2 SSTORE POP POP PUSH1 0x40 MLOAD PUSH1 0x1 PUSH1 0x1 PUSH1 0xA0 SHL SUB DUP4 AND SWAP1 PUSH1 0x0 SWAP1 PUSH32 0xDDF252AD1BE2C89B69C2B068FC378DAA952BA7F163C4A11628F55A4DF523B3EF SWAP1 PUSH3 0x21C SWAP1 DUP6 SWAP1 PUSH3 0x60F JUMP JUMPDEST PUSH1 0x40 MLOAD DUP1 SWAP2 SUB SWAP1 LOG3 PUSH3 0x150 PUSH1 0x0 DUP4 DUP4 PUSH3 0x3A9 JUMP JUMPDEST PUSH3 0x23E DUP3 DUP3 PUSH3 0x3AE JUMP JUMPDEST PUSH3 0x150 JUMPI PUSH1 0x0 DUP3 DUP2 MSTORE PUSH1 0x5 PUSH1 0x20 SWAP1 DUP2 MSTORE PUSH1 0x40 DUP1 DUP4 KECCAK256 PUSH1 0x1 PUSH1 0x1 PUSH1 0xA0 SHL SUB DUP6 AND DUP5 MSTORE SWAP1 SWAP2 MSTORE SWAP1 KECCAK256 DUP1 SLOAD PUSH1 0xFF NOT AND PUSH1 0x1 OR SWAP1 SSTORE PUSH3 0x27A PUSH3 0x3D9 JUMP JUMPDEST PUSH1 0x1 PUSH1 0x1 PUSH1 0xA0 SHL SUB AND DUP2 PUSH1 0x1 PUSH1 0x1 PUSH1 0xA0 SHL SUB AND DUP4 PUSH32 0x2F8788117E7EFF1D82E926EC794901D17C78024A50270940304540A733656F0D PUSH1 0x40 MLOAD PUSH1 0x40 MLOAD DUP1 SWAP2 SUB SWAP1 LOG4 POP POP JUMP JUMPDEST PUSH3 0x2C8 PUSH3 0x3DD JUMP JUMPDEST ISZERO PUSH3 0x2E8 JUMPI PUSH1 0x40 MLOAD PUSH3 0x461BCD PUSH1 0xE5 SHL DUP2 MSTORE PUSH1 0x4 ADD PUSH3 0x17D SWAP1 PUSH3 0x53D JUMP JUMPDEST PUSH3 0x2F3 CALLER PUSH3 0x3E6 JUMP JUMPDEST ISZERO PUSH3 0x313 JUMPI PUSH1 0x40 MLOAD PUSH3 0x461BCD PUSH1 0xE5 SHL DUP2 MSTORE PUSH1 0x4 ADD PUSH3 0x17D SWAP1 PUSH3 0x59E JUMP JUMPDEST PUSH3 0x32E PUSH1 0x0 DUP1 MLOAD PUSH1 0x20 PUSH3 0x281D DUP4 CODECOPY DUP2 MLOAD SWAP2 MSTORE CALLER PUSH3 0x3AE JUMP JUMPDEST DUP1 PUSH3 0x350 JUMPI POP PUSH3 0x350 PUSH1 0x0 DUP1 MLOAD PUSH1 0x20 PUSH3 0x285D DUP4 CODECOPY DUP2 MLOAD SWAP2 MSTORE CALLER PUSH3 0x3AE JUMP JUMPDEST DUP1 PUSH3 0x372 JUMPI POP PUSH3 0x372 PUSH1 0x0 DUP1 MLOAD PUSH1 0x20 PUSH3 0x283D DUP4 CODECOPY DUP2 MLOAD SWAP2 MSTORE CALLER PUSH3 0x3AE JUMP JUMPDEST PUSH3 0x391 JUMPI PUSH1 0x40 MLOAD PUSH3 0x461BCD PUSH1 0xE5 SHL DUP2 MSTORE PUSH1 0x4 ADD PUSH3 0x17D SWAP1 PUSH3 0x5C7 JUMP JUMPDEST PUSH3 0x3A9 DUP4 DUP4 DUP4 PUSH3 0x3A9 PUSH1 0x20 SHL PUSH3 0x93A OR PUSH1 0x20 SHR JUMP JUMPDEST POP POP POP JUMP JUMPDEST PUSH1 0x0 SWAP2 DUP3 MSTORE PUSH1 0x5 PUSH1 0x20 SWAP1 DUP2 MSTORE PUSH1 0x40 DUP1 DUP5 KECCAK256 PUSH1 0x1 PUSH1 0x1 PUSH1 0xA0 SHL SUB SWAP4 SWAP1 SWAP4 AND DUP5 MSTORE SWAP2 SWAP1 MSTORE SWAP1 KECCAK256 SLOAD PUSH1 0xFF AND SWAP1 JUMP JUMPDEST CALLER SWAP1 JUMP JUMPDEST PUSH1 0x6 SLOAD PUSH1 0xFF AND SWAP1 JUMP JUMPDEST PUSH1 0x0 PUSH3 0x3F5 PUSH1 0x2 DUP4 PUSH3 0x3FB JUMP JUMPDEST SWAP3 SWAP2 POP POP JUMP JUMPDEST PUSH1 0x0 PUSH3 0x41A DUP4 DUP4 PUSH1 0x7 PUSH3 0x421 PUSH1 0x20 SHL PUSH3 0xF1B OR SWAP1 SWAP3 SWAP2 SWAP1 PUSH1 0x20 SHR JUMP JUMPDEST SWAP4 SWAP3 POP POP POP JUMP JUMPDEST PUSH1 0xFF DUP3 AND PUSH1 0x0 SWAP1 DUP2 MSTORE PUSH1 0x20 DUP5 SWAP1 MSTORE PUSH1 0x40 DUP2 KECCAK256 PUSH3 0x43F DUP2 DUP5 PUSH3 0x448 JUMP JUMPDEST SWAP6 SWAP5 POP POP POP POP POP JUMP JUMPDEST PUSH1 0x0 PUSH1 0x1 PUSH1 0x1 PUSH1 0xA0 SHL SUB DUP3 AND PUSH3 0x45E JUMPI PUSH1 0x0 DUP1 REVERT JUMPDEST POP PUSH1 0x1 PUSH1 0x1 PUSH1 0xA0 SHL SUB AND PUSH1 0x0 SWAP1 DUP2 MSTORE PUSH1 0x20 SWAP2 SWAP1 SWAP2 MSTORE PUSH1 0x40 SWAP1 KECCAK256 SLOAD PUSH1 0xFF AND SWAP1 JUMP JUMPDEST DUP3 DUP1 SLOAD PUSH3 0x48C SWAP1 PUSH3 0x63D JUMP JUMPDEST SWAP1 PUSH1 0x0 MSTORE PUSH1 0x20 PUSH1 0x0 KECCAK256 SWAP1 PUSH1 0x1F ADD PUSH1 0x20 SWAP1 DIV DUP2 ADD SWAP3 DUP3 PUSH3 0x4B0 JUMPI PUSH1 0x0 DUP6 SSTORE PUSH3 0x4FB JUMP JUMPDEST DUP3 PUSH1 0x1F LT PUSH3 0x4CB JUMPI DUP1 MLOAD PUSH1 0xFF NOT AND DUP4 DUP1 ADD OR DUP6 SSTORE PUSH3 0x4FB JUMP JUMPDEST DUP3 DUP1 ADD PUSH1 0x1 ADD DUP6 SSTORE DUP3 ISZERO PUSH3 0x4FB JUMPI SWAP2 DUP3 ADD JUMPDEST DUP3 DUP2 GT ISZERO PUSH3 0x4FB JUMPI DUP3 MLOAD DUP3 SSTORE SWAP2 PUSH1 0x20 ADD SWAP2 SWAP1 PUSH1 0x1 ADD SWAP1 PUSH3 0x4DE JUMP JUMPDEST POP PUSH3 0x509 SWAP3 SWAP2 POP PUSH3 0x50D JUMP JUMPDEST POP SWAP1 JUMP JUMPDEST JUMPDEST DUP1 DUP3 GT ISZERO PUSH3 0x509 JUMPI PUSH1 0x0 DUP2 SSTORE PUSH1 0x1 ADD PUSH3 0x50E JUMP JUMPDEST PUSH1 0x0 PUSH1 0x20 DUP3 DUP5 SUB SLT ISZERO PUSH3 0x536 JUMPI DUP1 DUP2 REVERT JUMPDEST POP MLOAD SWAP2 SWAP1 POP JUMP JUMPDEST PUSH1 0x20 DUP1 DUP3 MSTORE PUSH1 0x10 SWAP1 DUP3 ADD MSTORE PUSH16 0x14185D5CD8589B194E881C185D5CD959 PUSH1 0x82 SHL PUSH1 0x40 DUP3 ADD MSTORE PUSH1 0x60 ADD SWAP1 JUMP JUMPDEST PUSH1 0x20 DUP1 DUP3 MSTORE PUSH1 0x1F SWAP1 DUP3 ADD MSTORE PUSH32 0x45524332303A206D696E7420746F20746865207A65726F206164647265737300 PUSH1 0x40 DUP3 ADD MSTORE PUSH1 0x60 ADD SWAP1 JUMP JUMPDEST PUSH1 0x20 DUP1 DUP3 MSTORE PUSH1 0xF SWAP1 DUP3 ADD MSTORE PUSH15 0x119C99595E9959081858D8DBDD5B9D PUSH1 0x8A SHL PUSH1 0x40 DUP3 ADD MSTORE PUSH1 0x60 ADD SWAP1 JUMP JUMPDEST PUSH1 0x20 DUP1 DUP3 MSTORE PUSH1 0x28 SWAP1 DUP3 ADD MSTORE PUSH32 0x416363657373207265737472696374656420746F20706172746963756C617220 PUSH1 0x40 DUP3 ADD MSTORE PUSH8 0x6163636F756E7473 PUSH1 0xC0 SHL PUSH1 0x60 DUP3 ADD MSTORE PUSH1 0x80 ADD SWAP1 JUMP JUMPDEST SWAP1 DUP2 MSTORE PUSH1 0x20 ADD SWAP1 JUMP JUMPDEST PUSH1 0x0 DUP3 NOT DUP3 GT ISZERO PUSH3 0x638 JUMPI PUSH4 0x4E487B71 PUSH1 0xE0 SHL DUP2 MSTORE PUSH1 0x11 PUSH1 0x4 MSTORE PUSH1 0x24 DUP2 REVERT JUMPDEST POP ADD SWAP1 JUMP JUMPDEST PUSH1 0x2 DUP2 DIV PUSH1 0x1 DUP3 AND DUP1 PUSH3 0x652 JUMPI PUSH1 0x7F DUP3 AND SWAP2 POP JUMPDEST PUSH1 0x20 DUP3 LT DUP2 EQ ISZERO PUSH3 0x674 JUMPI PUSH4 0x4E487B71 PUSH1 0xE0 SHL PUSH1 0x0 MSTORE PUSH1 0x22 PUSH1 0x4 MSTORE PUSH1 0x24 PUSH1 0x0 REVERT JUMPDEST POP SWAP2 SWAP1 POP JUMP JUMPDEST PUSH2 0x2193 DUP1 PUSH3 0x68A PUSH1 0x0 CODECOPY PUSH1 0x0 RETURN INVALID PUSH1 0x80 PUSH1 0x40 MSTORE CALLVALUE DUP1 ISZERO PUSH2 0x10 JUMPI PUSH1 0x0 DUP1 REVERT JUMPDEST POP PUSH1 0x4 CALLDATASIZE LT PUSH2 0x253 JUMPI PUSH1 0x0 CALLDATALOAD PUSH1 0xE0 SHR DUP1 PUSH4 0x70480275 GT PUSH2 0x146 JUMPI DUP1 PUSH4 0xA217FDDF GT PUSH2 0xC3 JUMPI DUP1 PUSH4 0xE43252D7 GT PUSH2 0x87 JUMPI DUP1 PUSH4 0xE43252D7 EQ PUSH2 0x4B7 JUMPI DUP1 PUSH4 0xE58378BB EQ PUSH2 0x4CA JUMPI DUP1 PUSH4 0xE5839836 EQ PUSH2 0x4D2 JUMPI DUP1 PUSH4 0xF5B541A6 EQ PUSH2 0x4E5 JUMPI DUP1 PUSH4 0xF7B188A5 EQ PUSH2 0x4ED JUMPI DUP1 PUSH4 0xFAD8B32A EQ PUSH2 0x4F5 JUMPI PUSH2 0x253 JUMP JUMPDEST DUP1 PUSH4 0xA217FDDF EQ PUSH2 0x463 JUMPI DUP1 PUSH4 0xA457C2D7 EQ PUSH2 0x46B JUMPI DUP1 PUSH4 0xA9059CBB EQ PUSH2 0x47E JUMPI DUP1 PUSH4 0xD547741F EQ PUSH2 0x491 JUMPI DUP1 PUSH4 0xDD62ED3E EQ PUSH2 0x4A4 JUMPI PUSH2 0x253 JUMP JUMPDEST DUP1 PUSH4 0x8D1FDF2F GT PUSH2 0x10A JUMPI DUP1 PUSH4 0x8D1FDF2F EQ PUSH2 0x40F JUMPI DUP1 PUSH4 0x91D14854 EQ PUSH2 0x422 JUMPI DUP1 PUSH4 0x95D89B41 EQ PUSH2 0x435 JUMPI DUP1 PUSH4 0x9870D7FE EQ PUSH2 0x43D JUMPI DUP1 PUSH4 0x9DC29FAC EQ PUSH2 0x450 JUMPI PUSH2 0x253 JUMP JUMPDEST DUP1 PUSH4 0x70480275 EQ PUSH2 0x3C6 JUMPI DUP1 PUSH4 0x70A08231 EQ PUSH2 0x3D9 JUMPI DUP1 PUSH4 0x75B238FC EQ PUSH2 0x3EC JUMPI DUP1 PUSH4 0x8456CB59 EQ PUSH2 0x3F4 JUMPI DUP1 PUSH4 0x8AB1D681 EQ PUSH2 0x3FC JUMPI PUSH2 0x253 JUMP JUMPDEST DUP1 PUSH4 0x2F2FF15D GT PUSH2 0x1D4 JUMPI DUP1 PUSH4 0x3AF32ABF GT PUSH2 0x198 JUMPI DUP1 PUSH4 0x3AF32ABF EQ PUSH2 0x37D JUMPI DUP1 PUSH4 0x3B5764EB EQ PUSH2 0x390 JUMPI DUP1 PUSH4 0x4208C09F EQ PUSH2 0x398 JUMPI DUP1 PUSH4 0x45C8B1A6 EQ PUSH2 0x3AB JUMPI DUP1 PUSH4 0x5C975ABB EQ PUSH2 0x3BE JUMPI PUSH2 0x253 JUMP JUMPDEST DUP1 PUSH4 0x2F2FF15D EQ PUSH2 0x329 JUMPI DUP1 PUSH4 0x313CE567 EQ PUSH2 0x33C JUMPI DUP1 PUSH4 0x36568ABE EQ PUSH2 0x344 JUMPI DUP1 PUSH4 0x380A75BF EQ PUSH2 0x357 JUMPI DUP1 PUSH4 0x39509351 EQ PUSH2 0x36A JUMPI PUSH2 0x253 JUMP JUMPDEST DUP1 PUSH4 0x1BB7CC99 GT PUSH2 0x21B JUMPI DUP1 PUSH4 0x1BB7CC99 EQ PUSH2 0x2C6 JUMPI DUP1 PUSH4 0x1E89D545 EQ PUSH2 0x2DB JUMPI DUP1 PUSH4 0x23B872DD EQ PUSH2 0x2EE JUMPI DUP1 PUSH4 0x248A9CA3 EQ PUSH2 0x301 JUMPI DUP1 PUSH4 0x2D345670 EQ PUSH2 0x314 JUMPI PUSH2 0x253 JUMP JUMPDEST DUP1 PUSH4 0x1FFC9A7 EQ PUSH2 0x258 JUMPI DUP1 PUSH4 0x6FDDE03 EQ PUSH2 0x281 JUMPI DUP1 PUSH4 0x95EA7B3 EQ PUSH2 0x296 JUMPI DUP1 PUSH4 0xD5B1FB4 EQ PUSH2 0x2A9 JUMPI DUP1 PUSH4 0x18160DDD EQ PUSH2 0x2BE JUMPI JUMPDEST PUSH1 0x0 DUP1 REVERT JUMPDEST PUSH2 0x26B PUSH2 0x266 CALLDATASIZE PUSH1 0x4 PUSH2 0x1B16 JUMP JUMPDEST PUSH2 0x508 JUMP JUMPDEST PUSH1 0x40 MLOAD PUSH2 0x278 SWAP2 SWAP1 PUSH2 0x1BC7 JUMP JUMPDEST PUSH1 0x40 MLOAD DUP1 SWAP2 SUB SWAP1 RETURN JUMPDEST PUSH2 0x289 PUSH2 0x535 JUMP JUMPDEST PUSH1 0x40 MLOAD PUSH2 0x278 SWAP2 SWAP1 PUSH2 0x1BDB JUMP JUMPDEST PUSH2 0x26B PUSH2 0x2A4 CALLDATASIZE PUSH1 0x4 PUSH2 0x1A4A JUMP JUMPDEST PUSH2 0x5C7 JUMP JUMPDEST PUSH2 0x2B1 PUSH2 0x5F6 JUMP JUMPDEST PUSH1 0x40 MLOAD PUSH2 0x278 SWAP2 SWAP1 PUSH2 0x1BD2 JUMP JUMPDEST PUSH2 0x2B1 PUSH2 0x608 JUMP JUMPDEST PUSH2 0x2CE PUSH2 0x60E JUMP JUMPDEST PUSH1 0x40 MLOAD PUSH2 0x278 SWAP2 SWAP1 PUSH2 0x1FF2 JUMP JUMPDEST PUSH2 0x26B PUSH2 0x2E9 CALLDATASIZE PUSH1 0x4 PUSH2 0x1A73 JUMP JUMPDEST PUSH2 0x613 JUMP JUMPDEST PUSH2 0x26B PUSH2 0x2FC CALLDATASIZE PUSH1 0x4 PUSH2 0x1A0F JUMP JUMPDEST PUSH2 0x881 JUMP JUMPDEST PUSH2 0x2B1 PUSH2 0x30F CALLDATASIZE PUSH1 0x4 PUSH2 0x1ADC JUMP JUMPDEST PUSH2 0x8AF JUMP JUMPDEST PUSH2 0x327 PUSH2 0x322 CALLDATASIZE PUSH1 0x4 PUSH2 0x19C3 JUMP JUMPDEST PUSH2 0x8C4 JUMP JUMPDEST STOP JUMPDEST PUSH2 0x327 PUSH2 0x337 CALLDATASIZE PUSH1 0x4 PUSH2 0x1AF4 JUMP JUMPDEST PUSH2 0x91E JUMP JUMPDEST PUSH2 0x2CE PUSH2 0x93F JUMP JUMPDEST PUSH2 0x327 PUSH2 0x352 CALLDATASIZE PUSH1 0x4 PUSH2 0x1AF4 JUMP JUMPDEST PUSH2 0x944 JUMP JUMPDEST PUSH2 0x327 PUSH2 0x365 CALLDATASIZE PUSH1 0x4 PUSH2 0x19C3 JUMP JUMPDEST PUSH2 0x986 JUMP JUMPDEST PUSH2 0x26B PUSH2 0x378 CALLDATASIZE PUSH1 0x4 PUSH2 0x1A4A JUMP JUMPDEST PUSH2 0x9DC JUMP JUMPDEST PUSH2 0x26B PUSH2 0x38B CALLDATASIZE PUSH1 0x4 PUSH2 0x19C3 JUMP JUMPDEST PUSH2 0xA02 JUMP JUMPDEST PUSH2 0x2CE PUSH2 0xA0F JUMP JUMPDEST PUSH2 0x327 PUSH2 0x3A6 CALLDATASIZE PUSH1 0x4 PUSH2 0x19C3 JUMP JUMPDEST PUSH2 0xA14 JUMP JUMPDEST PUSH2 0x327 PUSH2 0x3B9 CALLDATASIZE PUSH1 0x4 PUSH2 0x19C3 JUMP JUMPDEST PUSH2 0xA6A JUMP JUMPDEST PUSH2 0x26B PUSH2 0xAD8 JUMP JUMPDEST PUSH2 0x327 PUSH2 0x3D4 CALLDATASIZE PUSH1 0x4 PUSH2 0x19C3 JUMP JUMPDEST PUSH2 0xAE1 JUMP JUMPDEST PUSH2 0x2B1 PUSH2 0x3E7 CALLDATASIZE PUSH1 0x4 PUSH2 0x19C3 JUMP JUMPDEST PUSH2 0xB37 JUMP JUMPDEST PUSH2 0x2B1 PUSH2 0xB52 JUMP JUMPDEST PUSH2 0x327 PUSH2 0xB64 JUMP JUMPDEST PUSH2 0x327 PUSH2 0x40A CALLDATASIZE PUSH1 0x4 PUSH2 0x19C3 JUMP JUMPDEST PUSH2 0xB87 JUMP JUMPDEST PUSH2 0x327 PUSH2 0x41D CALLDATASIZE PUSH1 0x4 PUSH2 0x19C3 JUMP JUMPDEST PUSH2 0xBF5 JUMP JUMPDEST PUSH2 0x26B PUSH2 0x430 CALLDATASIZE PUSH1 0x4 PUSH2 0x1AF4 JUMP JUMPDEST PUSH2 0xC63 JUMP JUMPDEST PUSH2 0x289 PUSH2 0xC8E JUMP JUMPDEST PUSH2 0x327 PUSH2 0x44B CALLDATASIZE PUSH1 0x4 PUSH2 0x19C3 JUMP JUMPDEST PUSH2 0xC9D JUMP JUMPDEST PUSH2 0x327 PUSH2 0x45E CALLDATASIZE PUSH1 0x4 PUSH2 0x1A4A JUMP JUMPDEST PUSH2 0xCF3 JUMP JUMPDEST PUSH2 0x2B1 PUSH2 0xD60 JUMP JUMPDEST PUSH2 0x26B PUSH2 0x479 CALLDATASIZE PUSH1 0x4 PUSH2 0x1A4A JUMP JUMPDEST PUSH2 0xD65 JUMP JUMPDEST PUSH2 0x26B PUSH2 0x48C CALLDATASIZE PUSH1 0x4 PUSH2 0x1A4A JUMP JUMPDEST PUSH2 0xD8B JUMP JUMPDEST PUSH2 0x327 PUSH2 0x49F CALLDATASIZE PUSH1 0x4 PUSH2 0x1AF4 JUMP JUMPDEST PUSH2 0xDAD JUMP JUMPDEST PUSH2 0x2B1 PUSH2 0x4B2 CALLDATASIZE PUSH1 0x4 PUSH2 0x19DD JUMP JUMPDEST PUSH2 0xDC9 JUMP JUMPDEST PUSH2 0x327 PUSH2 0x4C5 CALLDATASIZE PUSH1 0x4 PUSH2 0x19C3 JUMP JUMPDEST PUSH2 0xDF4 JUMP JUMPDEST PUSH2 0x2B1 PUSH2 0xE62 JUMP JUMPDEST PUSH2 0x26B PUSH2 0x4E0 CALLDATASIZE PUSH1 0x4 PUSH2 0x19C3 JUMP JUMPDEST PUSH2 0xE86 JUMP JUMPDEST PUSH2 0x2B1 PUSH2 0xE93 JUMP JUMPDEST PUSH2 0x327 PUSH2 0xEA5 JUMP JUMPDEST PUSH2 0x327 PUSH2 0x503 CALLDATASIZE PUSH1 0x4 PUSH2 0x19C3 JUMP JUMPDEST PUSH2 0xEC5 JUMP JUMPDEST PUSH1 0x0 PUSH1 0x1 PUSH1 0x1 PUSH1 0xE0 SHL SUB NOT DUP3 AND PUSH4 0x7965DB0B PUSH1 0xE0 SHL EQ DUP1 PUSH2 0x52D JUMPI POP PUSH2 0x52D DUP3 PUSH2 0xF37 JUMP JUMPDEST SWAP1 POP JUMPDEST SWAP2 SWAP1 POP JUMP JUMPDEST PUSH1 0x60 PUSH1 0x3 DUP1 SLOAD PUSH2 0x544 SWAP1 PUSH2 0x2091 JUMP JUMPDEST DUP1 PUSH1 0x1F ADD PUSH1 0x20 DUP1 SWAP2 DIV MUL PUSH1 0x20 ADD PUSH1 0x40 MLOAD SWAP1 DUP2 ADD PUSH1 0x40 MSTORE DUP1 SWAP3 SWAP2 SWAP1 DUP2 DUP2 MSTORE PUSH1 0x20 ADD DUP3 DUP1 SLOAD PUSH2 0x570 SWAP1 PUSH2 0x2091 JUMP JUMPDEST DUP1 ISZERO PUSH2 0x5BD JUMPI DUP1 PUSH1 0x1F LT PUSH2 0x592 JUMPI PUSH2 0x100 DUP1 DUP4 SLOAD DIV MUL DUP4 MSTORE SWAP2 PUSH1 0x20 ADD SWAP2 PUSH2 0x5BD JUMP JUMPDEST DUP3 ADD SWAP2 SWAP1 PUSH1 0x0 MSTORE PUSH1 0x20 PUSH1 0x0 KECCAK256 SWAP1 JUMPDEST DUP2 SLOAD DUP2 MSTORE SWAP1 PUSH1 0x1 ADD SWAP1 PUSH1 0x20 ADD DUP1 DUP4 GT PUSH2 0x5A0 JUMPI DUP3 SWAP1 SUB PUSH1 0x1F AND DUP3 ADD SWAP2 JUMPDEST POP POP POP POP POP SWAP1 POP SWAP1 JUMP JUMPDEST PUSH1 0x0 PUSH1 0x0 DUP1 MLOAD PUSH1 0x20 PUSH2 0x213E DUP4 CODECOPY DUP2 MLOAD SWAP2 MSTORE PUSH2 0x5E1 DUP2 PUSH2 0xF50 JUMP JUMPDEST PUSH1 0x0 PUSH2 0x5ED DUP6 DUP6 PUSH2 0xF61 JUMP JUMPDEST SWAP6 SWAP5 POP POP POP POP POP JUMP JUMPDEST PUSH1 0x0 DUP1 MLOAD PUSH1 0x20 PUSH2 0x20FE DUP4 CODECOPY DUP2 MLOAD SWAP2 MSTORE DUP2 JUMP JUMPDEST PUSH1 0x2 SLOAD SWAP1 JUMP JUMPDEST PUSH1 0x1 DUP2 JUMP JUMPDEST PUSH1 0x0 PUSH2 0x61D PUSH2 0xAD8 JUMP JUMPDEST ISZERO PUSH2 0x643 JUMPI PUSH1 0x40 MLOAD PUSH3 0x461BCD PUSH1 0xE5 SHL DUP2 MSTORE PUSH1 0x4 ADD PUSH2 0x63A SWAP1 PUSH2 0x1DF9 JUMP JUMPDEST PUSH1 0x40 MLOAD DUP1 SWAP2 SUB SWAP1 REVERT JUMPDEST PUSH2 0x64C CALLER PUSH2 0xE86 JUMP JUMPDEST ISZERO PUSH2 0x669 JUMPI PUSH1 0x40 MLOAD PUSH3 0x461BCD PUSH1 0xE5 SHL DUP2 MSTORE PUSH1 0x4 ADD PUSH2 0x63A SWAP1 PUSH2 0x1F81 JUMP JUMPDEST PUSH2 0x693 PUSH32 0xB19546DFF01E856FB3F010C267A7B1C60363CF8A4664E21CC89C26224620214E CALLER PUSH2 0xC63 JUMP JUMPDEST DUP1 PUSH2 0x6B1 JUMPI POP PUSH2 0x6B1 PUSH1 0x0 DUP1 MLOAD PUSH1 0x20 PUSH2 0x213E DUP4 CODECOPY DUP2 MLOAD SWAP2 MSTORE CALLER PUSH2 0xC63 JUMP JUMPDEST DUP1 PUSH2 0x6CF JUMPI POP PUSH2 0x6CF PUSH1 0x0 DUP1 MLOAD PUSH1 0x20 PUSH2 0x211E DUP4 CODECOPY DUP2 MLOAD SWAP2 MSTORE CALLER PUSH2 0xC63 JUMP JUMPDEST PUSH2 0x6EB JUMPI PUSH1 0x40 MLOAD PUSH3 0x461BCD PUSH1 0xE5 SHL DUP2 MSTORE PUSH1 0x4 ADD PUSH2 0x63A SWAP1 PUSH2 0x1FAA JUMP JUMPDEST DUP4 ISZERO DUP1 ISZERO SWAP1 PUSH2 0x6F9 JUMPI POP DUP4 DUP3 EQ JUMPDEST PUSH2 0x715 JUMPI PUSH1 0x40 MLOAD PUSH3 0x461BCD PUSH1 0xE5 SHL DUP2 MSTORE PUSH1 0x4 ADD PUSH2 0x63A SWAP1 PUSH2 0x1DB5 JUMP JUMPDEST PUSH1 0x0 JUMPDEST DUP5 DUP2 LT ISZERO PUSH2 0x875 JUMPI PUSH2 0x758 DUP7 DUP7 DUP4 DUP2 DUP2 LT PUSH2 0x743 JUMPI PUSH4 0x4E487B71 PUSH1 0xE0 SHL PUSH1 0x0 MSTORE PUSH1 0x32 PUSH1 0x4 MSTORE PUSH1 0x24 PUSH1 0x0 REVERT JUMPDEST SWAP1 POP PUSH1 0x20 MUL ADD PUSH1 0x20 DUP2 ADD SWAP1 PUSH2 0x4E0 SWAP2 SWAP1 PUSH2 0x19C3 JUMP JUMPDEST PUSH2 0x7C6 JUMPI PUSH2 0x7C1 CALLER DUP8 DUP8 DUP5 DUP2 DUP2 LT PUSH2 0x780 JUMPI PUSH4 0x4E487B71 PUSH1 0xE0 SHL PUSH1 0x0 MSTORE PUSH1 0x32 PUSH1 0x4 MSTORE PUSH1 0x24 PUSH1 0x0 REVERT JUMPDEST SWAP1 POP PUSH1 0x20 MUL ADD PUSH1 0x20 DUP2 ADD SWAP1 PUSH2 0x795 SWAP2 SWAP1 PUSH2 0x19C3 JUMP JUMPDEST DUP7 DUP7 DUP6 DUP2 DUP2 LT PUSH2 0x7B5 JUMPI PUSH4 0x4E487B71 PUSH1 0xE0 SHL PUSH1 0x0 MSTORE PUSH1 0x32 PUSH1 0x4 MSTORE PUSH1 0x24 PUSH1 0x0 REVERT JUMPDEST SWAP1 POP PUSH1 0x20 MUL ADD CALLDATALOAD PUSH2 0xF79 JUMP JUMPDEST PUSH2 0x863 JUMP JUMPDEST DUP6 DUP6 DUP3 DUP2 DUP2 LT PUSH2 0x7E6 JUMPI PUSH4 0x4E487B71 PUSH1 0xE0 SHL PUSH1 0x0 MSTORE PUSH1 0x32 PUSH1 0x4 MSTORE PUSH1 0x24 PUSH1 0x0 REVERT JUMPDEST SWAP1 POP PUSH1 0x20 MUL ADD PUSH1 0x20 DUP2 ADD SWAP1 PUSH2 0x7FB SWAP2 SWAP1 PUSH2 0x19C3 JUMP JUMPDEST PUSH1 0x1 PUSH1 0x1 PUSH1 0xA0 SHL SUB AND CALLER PUSH32 0x57B832B60CAC2D336BD974F846B5D4C4AF5AEEEB2DBD0F8CBD3EA89FC9078EEA DUP7 DUP7 DUP6 DUP2 DUP2 LT PUSH2 0x846 JUMPI PUSH4 0x4E487B71 PUSH1 0xE0 SHL PUSH1 0x0 MSTORE PUSH1 0x32 PUSH1 0x4 MSTORE PUSH1 0x24 PUSH1 0x0 REVERT JUMPDEST SWAP1 POP PUSH1 0x20 MUL ADD CALLDATALOAD PUSH1 0x40 MLOAD PUSH2 0x85A SWAP2 SWAP1 PUSH2 0x1BD2 JUMP JUMPDEST PUSH1 0x40 MLOAD DUP1 SWAP2 SUB SWAP1 LOG3 JUMPDEST DUP1 PUSH2 0x86D DUP2 PUSH2 0x20CC JUMP JUMPDEST SWAP2 POP POP PUSH2 0x718 JUMP JUMPDEST POP PUSH1 0x1 SWAP6 SWAP5 POP POP POP POP POP JUMP JUMPDEST PUSH1 0x0 DUP1 PUSH2 0x88C PUSH2 0x10A3 JUMP JUMPDEST SWAP1 POP PUSH2 0x899 DUP6 DUP3 DUP6 PUSH2 0x10A7 JUMP JUMPDEST PUSH2 0x8A4 DUP6 DUP6 DUP6 PUSH2 0xF79 JUMP JUMPDEST POP PUSH1 0x1 SWAP5 SWAP4 POP POP POP POP JUMP JUMPDEST PUSH1 0x0 SWAP1 DUP2 MSTORE PUSH1 0x5 PUSH1 0x20 MSTORE PUSH1 0x40 SWAP1 KECCAK256 PUSH1 0x1 ADD SLOAD SWAP1 JUMP JUMPDEST PUSH2 0x8CD CALLER PUSH2 0xE86 JUMP JUMPDEST ISZERO PUSH2 0x8EA JUMPI PUSH1 0x40 MLOAD PUSH3 0x461BCD PUSH1 0xE5 SHL DUP2 MSTORE PUSH1 0x4 ADD PUSH2 0x63A SWAP1 PUSH2 0x1F81 JUMP JUMPDEST PUSH1 0x0 DUP1 MLOAD PUSH1 0x20 PUSH2 0x213E DUP4 CODECOPY DUP2 MLOAD SWAP2 MSTORE PUSH2 0x902 DUP2 PUSH2 0xF50 JUMP JUMPDEST PUSH2 0x91A PUSH1 0x0 DUP1 MLOAD PUSH1 0x20 PUSH2 0x213E DUP4 CODECOPY DUP2 MLOAD SWAP2 MSTORE DUP4 PUSH2 0xDAD JUMP JUMPDEST POP POP JUMP JUMPDEST PUSH2 0x927 DUP3 PUSH2 0x8AF JUMP JUMPDEST PUSH2 0x930 DUP2 PUSH2 0xF50 JUMP JUMPDEST PUSH2 0x93A DUP4 DUP4 PUSH2 0x10EB JUMP JUMPDEST POP POP POP JUMP JUMPDEST PUSH1 0x12 SWAP1 JUMP JUMPDEST PUSH2 0x94C PUSH2 0x10A3 JUMP JUMPDEST PUSH1 0x1 PUSH1 0x1 PUSH1 0xA0 SHL SUB AND DUP2 PUSH1 0x1 PUSH1 0x1 PUSH1 0xA0 SHL SUB AND EQ PUSH2 0x97C JUMPI PUSH1 0x40 MLOAD PUSH3 0x461BCD PUSH1 0xE5 SHL DUP2 MSTORE PUSH1 0x4 ADD PUSH2 0x63A SWAP1 PUSH2 0x1F32 JUMP JUMPDEST PUSH2 0x91A DUP3 DUP3 PUSH2 0x1172 JUMP JUMPDEST PUSH2 0x98F CALLER PUSH2 0xE86 JUMP JUMPDEST ISZERO PUSH2 0x9AC JUMPI PUSH1 0x40 MLOAD PUSH3 0x461BCD PUSH1 0xE5 SHL DUP2 MSTORE PUSH1 0x4 ADD PUSH2 0x63A SWAP1 PUSH2 0x1F81 JUMP JUMPDEST PUSH1 0x0 DUP1 MLOAD PUSH1 0x20 PUSH2 0x213E DUP4 CODECOPY DUP2 MLOAD SWAP2 MSTORE PUSH2 0x9C4 DUP2 PUSH2 0xF50 JUMP JUMPDEST PUSH2 0x91A PUSH1 0x0 DUP1 MLOAD PUSH1 0x20 PUSH2 0x20FE DUP4 CODECOPY DUP2 MLOAD SWAP2 MSTORE DUP4 PUSH2 0x91E JUMP JUMPDEST PUSH1 0x0 PUSH1 0x0 DUP1 MLOAD PUSH1 0x20 PUSH2 0x213E DUP4 CODECOPY DUP2 MLOAD SWAP2 MSTORE PUSH2 0x9F6 DUP2 PUSH2 0xF50 JUMP JUMPDEST PUSH1 0x0 PUSH2 0x5ED DUP6 DUP6 PUSH2 0x11F7 JUMP JUMPDEST PUSH1 0x0 PUSH2 0x52D PUSH1 0x1 DUP4 PUSH2 0x1223 JUMP JUMPDEST PUSH1 0x2 DUP2 JUMP JUMPDEST PUSH2 0xA1D CALLER PUSH2 0xE86 JUMP JUMPDEST ISZERO PUSH2 0xA3A JUMPI PUSH1 0x40 MLOAD PUSH3 0x461BCD PUSH1 0xE5 SHL DUP2 MSTORE PUSH1 0x4 ADD PUSH2 0x63A SWAP1 PUSH2 0x1F81 JUMP JUMPDEST PUSH1 0x0 DUP1 MLOAD PUSH1 0x20 PUSH2 0x213E DUP4 CODECOPY DUP2 MLOAD SWAP2 MSTORE PUSH2 0xA52 DUP2 PUSH2 0xF50 JUMP JUMPDEST PUSH2 0x91A PUSH1 0x0 DUP1 MLOAD PUSH1 0x20 PUSH2 0x20FE DUP4 CODECOPY DUP2 MLOAD SWAP2 MSTORE DUP4 PUSH2 0xDAD JUMP JUMPDEST PUSH2 0xA72 PUSH2 0xAD8 JUMP JUMPDEST ISZERO PUSH2 0xA8F JUMPI PUSH1 0x40 MLOAD PUSH3 0x461BCD PUSH1 0xE5 SHL DUP2 MSTORE PUSH1 0x4 ADD PUSH2 0x63A SWAP1 PUSH2 0x1DF9 JUMP JUMPDEST PUSH2 0xA98 CALLER PUSH2 0xE86 JUMP JUMPDEST ISZERO PUSH2 0xAB5 JUMPI PUSH1 0x40 MLOAD PUSH3 0x461BCD PUSH1 0xE5 SHL DUP2 MSTORE PUSH1 0x4 ADD PUSH2 0x63A SWAP1 PUSH2 0x1F81 JUMP JUMPDEST PUSH1 0x0 DUP1 MLOAD PUSH1 0x20 PUSH2 0x213E DUP4 CODECOPY DUP2 MLOAD SWAP2 MSTORE PUSH2 0xACD DUP2 PUSH2 0xF50 JUMP JUMPDEST PUSH2 0x91A PUSH1 0x2 DUP4 PUSH2 0x1238 JUMP JUMPDEST PUSH1 0x6 SLOAD PUSH1 0xFF AND SWAP1 JUMP JUMPDEST PUSH2 0xAEA CALLER PUSH2 0xE86 JUMP JUMPDEST ISZERO PUSH2 0xB07 JUMPI PUSH1 0x40 MLOAD PUSH3 0x461BCD PUSH1 0xE5 SHL DUP2 MSTORE PUSH1 0x4 ADD PUSH2 0x63A SWAP1 PUSH2 0x1F81 JUMP JUMPDEST PUSH1 0x0 DUP1 MLOAD PUSH1 0x20 PUSH2 0x213E DUP4 CODECOPY DUP2 MLOAD SWAP2 MSTORE PUSH2 0xB1F DUP2 PUSH2 0xF50 JUMP JUMPDEST PUSH2 0x91A PUSH1 0x0 DUP1 MLOAD PUSH1 0x20 PUSH2 0x213E DUP4 CODECOPY DUP2 MLOAD SWAP2 MSTORE DUP4 PUSH2 0x91E JUMP JUMPDEST PUSH1 0x1 PUSH1 0x1 PUSH1 0xA0 SHL SUB AND PUSH1 0x0 SWAP1 DUP2 MSTORE PUSH1 0x20 DUP2 SWAP1 MSTORE PUSH1 0x40 SWAP1 KECCAK256 SLOAD SWAP1 JUMP JUMPDEST PUSH1 0x0 DUP1 MLOAD PUSH1 0x20 PUSH2 0x213E DUP4 CODECOPY DUP2 MLOAD SWAP2 MSTORE DUP2 JUMP JUMPDEST PUSH1 0x0 DUP1 MLOAD PUSH1 0x20 PUSH2 0x20FE DUP4 CODECOPY DUP2 MLOAD SWAP2 MSTORE PUSH2 0xB7C DUP2 PUSH2 0xF50 JUMP JUMPDEST PUSH2 0xB84 PUSH2 0x1281 JUMP JUMPDEST POP JUMP JUMPDEST PUSH2 0xB8F PUSH2 0xAD8 JUMP JUMPDEST ISZERO PUSH2 0xBAC JUMPI PUSH1 0x40 MLOAD PUSH3 0x461BCD PUSH1 0xE5 SHL DUP2 MSTORE PUSH1 0x4 ADD PUSH2 0x63A SWAP1 PUSH2 0x1DF9 JUMP JUMPDEST PUSH2 0xBB5 CALLER PUSH2 0xE86 JUMP JUMPDEST ISZERO PUSH2 0xBD2 JUMPI PUSH1 0x40 MLOAD PUSH3 0x461BCD PUSH1 0xE5 SHL DUP2 MSTORE PUSH1 0x4 ADD PUSH2 0x63A SWAP1 PUSH2 0x1F81 JUMP JUMPDEST PUSH1 0x0 DUP1 MLOAD PUSH1 0x20 PUSH2 0x213E DUP4 CODECOPY DUP2 MLOAD SWAP2 MSTORE PUSH2 0xBEA DUP2 PUSH2 0xF50 JUMP JUMPDEST PUSH2 0x91A PUSH1 0x1 DUP4 PUSH2 0x1238 JUMP JUMPDEST PUSH2 0xBFD PUSH2 0xAD8 JUMP JUMPDEST ISZERO PUSH2 0xC1A JUMPI PUSH1 0x40 MLOAD PUSH3 0x461BCD PUSH1 0xE5 SHL DUP2 MSTORE PUSH1 0x4 ADD PUSH2 0x63A SWAP1 PUSH2 0x1DF9 JUMP JUMPDEST PUSH2 0xC23 CALLER PUSH2 0xE86 JUMP JUMPDEST ISZERO PUSH2 0xC40 JUMPI PUSH1 0x40 MLOAD PUSH3 0x461BCD PUSH1 0xE5 SHL DUP2 MSTORE PUSH1 0x4 ADD PUSH2 0x63A SWAP1 PUSH2 0x1F81 JUMP JUMPDEST PUSH1 0x0 DUP1 MLOAD PUSH1 0x20 PUSH2 0x213E DUP4 CODECOPY DUP2 MLOAD SWAP2 MSTORE PUSH2 0xC58 DUP2 PUSH2 0xF50 JUMP JUMPDEST PUSH2 0x91A PUSH1 0x2 DUP4 PUSH2 0x12F3 JUMP JUMPDEST PUSH1 0x0 SWAP2 DUP3 MSTORE PUSH1 0x5 PUSH1 0x20 SWAP1 DUP2 MSTORE PUSH1 0x40 DUP1 DUP5 KECCAK256 PUSH1 0x1 PUSH1 0x1 PUSH1 0xA0 SHL SUB SWAP4 SWAP1 SWAP4 AND DUP5 MSTORE SWAP2 SWAP1 MSTORE SWAP1 KECCAK256 SLOAD PUSH1 0xFF AND SWAP1 JUMP JUMPDEST PUSH1 0x60 PUSH1 0x4 DUP1 SLOAD PUSH2 0x544 SWAP1 PUSH2 0x2091 JUMP JUMPDEST PUSH2 0xCA6 CALLER PUSH2 0xE86 JUMP JUMPDEST ISZERO PUSH2 0xCC3 JUMPI PUSH1 0x40 MLOAD PUSH3 0x461BCD PUSH1 0xE5 SHL DUP2 MSTORE PUSH1 0x4 ADD PUSH2 0x63A SWAP1 PUSH2 0x1F81 JUMP JUMPDEST PUSH1 0x0 DUP1 MLOAD PUSH1 0x20 PUSH2 0x213E DUP4 CODECOPY DUP2 MLOAD SWAP2 MSTORE PUSH2 0xCDB DUP2 PUSH2 0xF50 JUMP JUMPDEST PUSH2 0x91A PUSH1 0x0 DUP1 MLOAD PUSH1 0x20 PUSH2 0x211E DUP4 CODECOPY DUP2 MLOAD SWAP2 MSTORE DUP4 PUSH2 0x91E JUMP JUMPDEST PUSH2 0xCFB PUSH2 0xAD8 JUMP JUMPDEST ISZERO PUSH2 0xD18 JUMPI PUSH1 0x40 MLOAD PUSH3 0x461BCD PUSH1 0xE5 SHL DUP2 MSTORE PUSH1 0x4 ADD PUSH2 0x63A SWAP1 PUSH2 0x1DF9 JUMP JUMPDEST PUSH2 0xD21 CALLER PUSH2 0xE86 JUMP JUMPDEST ISZERO PUSH2 0xD3E JUMPI PUSH1 0x40 MLOAD PUSH3 0x461BCD PUSH1 0xE5 SHL DUP2 MSTORE PUSH1 0x4 ADD PUSH2 0x63A SWAP1 PUSH2 0x1F81 JUMP JUMPDEST PUSH1 0x0 DUP1 MLOAD PUSH1 0x20 PUSH2 0x213E DUP4 CODECOPY DUP2 MLOAD SWAP2 MSTORE PUSH2 0xD56 DUP2 PUSH2 0xF50 JUMP JUMPDEST PUSH2 0x93A DUP4 DUP4 PUSH2 0x133C JUMP JUMPDEST PUSH1 0x0 DUP2 JUMP JUMPDEST PUSH1 0x0 PUSH1 0x0 DUP1 MLOAD PUSH1 0x20 PUSH2 0x213E DUP4 CODECOPY DUP2 MLOAD SWAP2 MSTORE PUSH2 0xD7F DUP2 PUSH2 0xF50 JUMP JUMPDEST PUSH1 0x0 PUSH2 0x5ED DUP6 DUP6 PUSH2 0x142D JUMP JUMPDEST PUSH1 0x0 DUP1 PUSH2 0xD96 PUSH2 0x10A3 JUMP JUMPDEST SWAP1 POP PUSH2 0xDA3 DUP2 DUP6 DUP6 PUSH2 0xF79 JUMP JUMPDEST POP PUSH1 0x1 SWAP4 SWAP3 POP POP POP JUMP JUMPDEST PUSH2 0xDB6 DUP3 PUSH2 0x8AF JUMP JUMPDEST PUSH2 0xDBF DUP2 PUSH2 0xF50 JUMP JUMPDEST PUSH2 0x93A DUP4 DUP4 PUSH2 0x1172 JUMP JUMPDEST PUSH1 0x1 PUSH1 0x1 PUSH1 0xA0 SHL SUB SWAP2 DUP3 AND PUSH1 0x0 SWAP1 DUP2 MSTORE PUSH1 0x1 PUSH1 0x20 SWAP1 DUP2 MSTORE PUSH1 0x40 DUP1 DUP4 KECCAK256 SWAP4 SWAP1 SWAP5 AND DUP3 MSTORE SWAP2 SWAP1 SWAP2 MSTORE KECCAK256 SLOAD SWAP1 JUMP JUMPDEST PUSH2 0xDFC PUSH2 0xAD8 JUMP JUMPDEST ISZERO PUSH2 0xE19 JUMPI PUSH1 0x40 MLOAD PUSH3 0x461BCD PUSH1 0xE5 SHL DUP2 MSTORE PUSH1 0x4 ADD PUSH2 0x63A SWAP1 PUSH2 0x1DF9 JUMP JUMPDEST PUSH2 0xE22 CALLER PUSH2 0xE86 JUMP JUMPDEST ISZERO PUSH2 0xE3F JUMPI PUSH1 0x40 MLOAD PUSH3 0x461BCD PUSH1 0xE5 SHL DUP2 MSTORE PUSH1 0x4 ADD PUSH2 0x63A SWAP1 PUSH2 0x1F81 JUMP JUMPDEST PUSH1 0x0 DUP1 MLOAD PUSH1 0x20 PUSH2 0x213E DUP4 CODECOPY DUP2 MLOAD SWAP2 MSTORE PUSH2 0xE57 DUP2 PUSH2 0xF50 JUMP JUMPDEST PUSH2 0x91A PUSH1 0x1 DUP4 PUSH2 0x12F3 JUMP JUMPDEST PUSH32 0xB19546DFF01E856FB3F010C267A7B1C60363CF8A4664E21CC89C26224620214E DUP2 JUMP JUMPDEST PUSH1 0x0 PUSH2 0x52D PUSH1 0x2 DUP4 PUSH2 0x1223 JUMP JUMPDEST PUSH1 0x0 DUP1 MLOAD PUSH1 0x20 PUSH2 0x211E DUP4 CODECOPY DUP2 MLOAD SWAP2 MSTORE DUP2 JUMP JUMPDEST PUSH1 0x0 DUP1 MLOAD PUSH1 0x20 PUSH2 0x20FE DUP4 CODECOPY DUP2 MLOAD SWAP2 MSTORE PUSH2 0xEBD DUP2 PUSH2 0xF50 JUMP JUMPDEST PUSH2 0xB84 PUSH2 0x1475 JUMP JUMPDEST PUSH2 0xECE CALLER PUSH2 0xE86 JUMP JUMPDEST ISZERO PUSH2 0xEEB JUMPI PUSH1 0x40 MLOAD PUSH3 0x461BCD PUSH1 0xE5 SHL DUP2 MSTORE PUSH1 0x4 ADD PUSH2 0x63A SWAP1 PUSH2 0x1F81 JUMP JUMPDEST PUSH1 0x0 DUP1 MLOAD PUSH1 0x20 PUSH2 0x213E DUP4 CODECOPY DUP2 MLOAD SWAP2 MSTORE PUSH2 0xF03 DUP2 PUSH2 0xF50 JUMP JUMPDEST PUSH2 0x91A PUSH1 0x0 DUP1 MLOAD PUSH1 0x20 PUSH2 0x211E DUP4 CODECOPY DUP2 MLOAD SWAP2 MSTORE DUP4 PUSH2 0xDAD JUMP JUMPDEST PUSH1 0xFF DUP3 AND PUSH1 0x0 SWAP1 DUP2 MSTORE PUSH1 0x20 DUP5 SWAP1 MSTORE PUSH1 0x40 DUP2 KECCAK256 PUSH2 0x5ED DUP2 DUP5 PUSH2 0x14CC JUMP JUMPDEST PUSH1 0x1 PUSH1 0x1 PUSH1 0xE0 SHL SUB NOT DUP2 AND PUSH4 0x1FFC9A7 PUSH1 0xE0 SHL EQ SWAP2 SWAP1 POP JUMP JUMPDEST PUSH2 0xB84 DUP2 PUSH2 0xF5C PUSH2 0x10A3 JUMP JUMPDEST PUSH2 0x1501 JUMP JUMPDEST PUSH1 0x0 DUP1 PUSH2 0xF6C PUSH2 0x10A3 JUMP JUMPDEST SWAP1 POP PUSH2 0xDA3 DUP2 DUP6 DUP6 PUSH2 0x1565 JUMP JUMPDEST PUSH1 0x1 PUSH1 0x1 PUSH1 0xA0 SHL SUB DUP4 AND PUSH2 0xF9F JUMPI PUSH1 0x40 MLOAD PUSH3 0x461BCD PUSH1 0xE5 SHL DUP2 MSTORE PUSH1 0x4 ADD PUSH2 0x63A SWAP1 PUSH2 0x1E64 JUMP JUMPDEST PUSH1 0x1 PUSH1 0x1 PUSH1 0xA0 SHL SUB DUP3 AND PUSH2 0xFC5 JUMPI PUSH1 0x40 MLOAD PUSH3 0x461BCD PUSH1 0xE5 SHL DUP2 MSTORE PUSH1 0x4 ADD PUSH2 0x63A SWAP1 PUSH2 0x1C43 JUMP JUMPDEST PUSH2 0xFD0 DUP4 DUP4 DUP4 PUSH2 0x1619 JUMP JUMPDEST PUSH1 0x1 PUSH1 0x1 PUSH1 0xA0 SHL SUB DUP4 AND PUSH1 0x0 SWAP1 DUP2 MSTORE PUSH1 0x20 DUP2 SWAP1 MSTORE PUSH1 0x40 SWAP1 KECCAK256 SLOAD DUP2 DUP2 LT ISZERO PUSH2 0x1009 JUMPI PUSH1 0x40 MLOAD PUSH3 0x461BCD PUSH1 0xE5 SHL DUP2 MSTORE PUSH1 0x4 ADD PUSH2 0x63A SWAP1 PUSH2 0x1D6F JUMP JUMPDEST PUSH1 0x1 PUSH1 0x1 PUSH1 0xA0 SHL SUB DUP1 DUP6 AND PUSH1 0x0 SWAP1 DUP2 MSTORE PUSH1 0x20 DUP2 SWAP1 MSTORE PUSH1 0x40 DUP1 DUP3 KECCAK256 DUP6 DUP6 SUB SWAP1 SSTORE SWAP2 DUP6 AND DUP2 MSTORE SWAP1 DUP2 KECCAK256 DUP1 SLOAD DUP5 SWAP3 SWAP1 PUSH2 0x1040 SWAP1 DUP5 SWAP1 PUSH2 0x2000 JUMP JUMPDEST SWAP3 POP POP DUP2 SWAP1 SSTORE POP DUP3 PUSH1 0x1 PUSH1 0x1 PUSH1 0xA0 SHL SUB AND DUP5 PUSH1 0x1 PUSH1 0x1 PUSH1 0xA0 SHL SUB AND PUSH32 0xDDF252AD1BE2C89B69C2B068FC378DAA952BA7F163C4A11628F55A4DF523B3EF DUP5 PUSH1 0x40 MLOAD PUSH2 0x108A SWAP2 SWAP1 PUSH2 0x1BD2 JUMP JUMPDEST PUSH1 0x40 MLOAD DUP1 SWAP2 SUB SWAP1 LOG3 PUSH2 0x109D DUP5 DUP5 DUP5 PUSH2 0x93A JUMP JUMPDEST POP POP POP POP JUMP JUMPDEST CALLER SWAP1 JUMP JUMPDEST PUSH1 0x0 PUSH2 0x10B3 DUP5 DUP5 PUSH2 0xDC9 JUMP JUMPDEST SWAP1 POP PUSH1 0x0 NOT DUP2 EQ PUSH2 0x109D JUMPI DUP2 DUP2 LT ISZERO PUSH2 0x10DE JUMPI PUSH1 0x40 MLOAD PUSH3 0x461BCD PUSH1 0xE5 SHL DUP2 MSTORE PUSH1 0x4 ADD PUSH2 0x63A SWAP1 PUSH2 0x1D38 JUMP JUMPDEST PUSH2 0x109D DUP5 DUP5 DUP5 DUP5 SUB PUSH2 0x1565 JUMP JUMPDEST PUSH2 0x10F5 DUP3 DUP3 PUSH2 0xC63 JUMP JUMPDEST PUSH2 0x91A JUMPI PUSH1 0x0 DUP3 DUP2 MSTORE PUSH1 0x5 PUSH1 0x20 SWAP1 DUP2 MSTORE PUSH1 0x40 DUP1 DUP4 KECCAK256 PUSH1 0x1 PUSH1 0x1 PUSH1 0xA0 SHL SUB DUP6 AND DUP5 MSTORE SWAP1 SWAP2 MSTORE SWAP1 KECCAK256 DUP1 SLOAD PUSH1 0xFF NOT AND PUSH1 0x1 OR SWAP1 SSTORE PUSH2 0x112E PUSH2 0x10A3 JUMP JUMPDEST PUSH1 0x1 PUSH1 0x1 PUSH1 0xA0 SHL SUB AND DUP2 PUSH1 0x1 PUSH1 0x1 PUSH1 0xA0 SHL SUB AND DUP4 PUSH32 0x2F8788117E7EFF1D82E926EC794901D17C78024A50270940304540A733656F0D PUSH1 0x40 MLOAD PUSH1 0x40 MLOAD DUP1 SWAP2 SUB SWAP1 LOG4 POP POP JUMP JUMPDEST PUSH2 0x117C DUP3 DUP3 PUSH2 0xC63 JUMP JUMPDEST ISZERO PUSH2 0x91A JUMPI PUSH1 0x0 DUP3 DUP2 MSTORE PUSH1 0x5 PUSH1 0x20 SWAP1 DUP2 MSTORE PUSH1 0x40 DUP1 DUP4 KECCAK256 PUSH1 0x1 PUSH1 0x1 PUSH1 0xA0 SHL SUB DUP6 AND DUP5 MSTORE SWAP1 SWAP2 MSTORE SWAP1 KECCAK256 DUP1 SLOAD PUSH1 0xFF NOT AND SWAP1 SSTORE PUSH2 0x11B3 PUSH2 0x10A3 JUMP JUMPDEST PUSH1 0x1 PUSH1 0x1 PUSH1 0xA0 SHL SUB AND DUP2 PUSH1 0x1 PUSH1 0x1 PUSH1 0xA0 SHL SUB AND DUP4 PUSH32 0xF6391F5C32D9C69D2A47EA670B442974B53935D1EDC7FD64EB21E047A839171B PUSH1 0x40 MLOAD PUSH1 0x40 MLOAD DUP1 SWAP2 SUB SWAP1 LOG4 POP POP JUMP JUMPDEST PUSH1 0x0 DUP1 PUSH2 0x1202 PUSH2 0x10A3 JUMP JUMPDEST SWAP1 POP PUSH2 0xDA3 DUP2 DUP6 DUP6 PUSH2 0x1214 DUP6 DUP10 PUSH2 0xDC9 JUMP JUMPDEST PUSH2 0x121E SWAP2 SWAP1 PUSH2 0x2000 JUMP JUMPDEST PUSH2 0x1565 JUMP JUMPDEST PUSH1 0x0 PUSH2 0x1231 PUSH1 0x7 DUP5 DUP5 PUSH2 0xF1B JUMP JUMPDEST SWAP4 SWAP3 POP POP POP JUMP JUMPDEST PUSH2 0x1244 PUSH1 0x7 DUP4 DUP4 PUSH2 0x16F1 JUMP JUMPDEST PUSH1 0x40 MLOAD PUSH1 0x1 PUSH1 0x1 PUSH1 0xA0 SHL SUB DUP3 AND SWAP1 PUSH1 0xFF DUP5 AND SWAP1 PUSH32 0xE1900EB0958D3192C4824B787E78E8B534E429190D9D837ECBFB6257A8A1B1C SWAP1 PUSH1 0x0 SWAP1 LOG3 POP POP JUMP JUMPDEST PUSH2 0x1289 PUSH2 0xAD8 JUMP JUMPDEST ISZERO PUSH2 0x12A6 JUMPI PUSH1 0x40 MLOAD PUSH3 0x461BCD PUSH1 0xE5 SHL DUP2 MSTORE PUSH1 0x4 ADD PUSH2 0x63A SWAP1 PUSH2 0x1DF9 JUMP JUMPDEST PUSH1 0x6 DUP1 SLOAD PUSH1 0xFF NOT AND PUSH1 0x1 OR SWAP1 SSTORE PUSH32 0x62E78CEA01BEE320CD4E420270B5EA74000D11B0C9F74754EBDBFC544B05A258 PUSH2 0x12DC PUSH2 0x10A3 JUMP JUMPDEST PUSH1 0x40 MLOAD PUSH2 0x12E9 SWAP2 SWAP1 PUSH2 0x1BB3 JUMP JUMPDEST PUSH1 0x40 MLOAD DUP1 SWAP2 SUB SWAP1 LOG1 JUMP JUMPDEST PUSH2 0x12FF PUSH1 0x7 DUP4 DUP4 PUSH2 0x174F JUMP JUMPDEST PUSH1 0x40 MLOAD PUSH1 0x1 PUSH1 0x1 PUSH1 0xA0 SHL SUB DUP3 AND SWAP1 PUSH1 0xFF DUP5 AND SWAP1 PUSH32 0x108CDBA04FA22E3AF2C83669B3A439BAE9DF498AF451D1B1A0A7DA5453C97BCE SWAP1 PUSH1 0x0 SWAP1 LOG3 POP POP JUMP JUMPDEST PUSH1 0x1 PUSH1 0x1 PUSH1 0xA0 SHL SUB DUP3 AND PUSH2 0x1362 JUMPI PUSH1 0x40 MLOAD PUSH3 0x461BCD PUSH1 0xE5 SHL DUP2 MSTORE PUSH1 0x4 ADD PUSH2 0x63A SWAP1 PUSH2 0x1E23 JUMP JUMPDEST PUSH2 0x136E DUP3 PUSH1 0x0 DUP4 PUSH2 0x1619 JUMP JUMPDEST PUSH1 0x1 PUSH1 0x1 PUSH1 0xA0 SHL SUB DUP3 AND PUSH1 0x0 SWAP1 DUP2 MSTORE PUSH1 0x20 DUP2 SWAP1 MSTORE PUSH1 0x40 SWAP1 KECCAK256 SLOAD DUP2 DUP2 LT ISZERO PUSH2 0x13A7 JUMPI PUSH1 0x40 MLOAD PUSH3 0x461BCD PUSH1 0xE5 SHL DUP2 MSTORE PUSH1 0x4 ADD PUSH2 0x63A SWAP1 PUSH2 0x1CB4 JUMP JUMPDEST PUSH1 0x1 PUSH1 0x1 PUSH1 0xA0 SHL SUB DUP4 AND PUSH1 0x0 SWAP1 DUP2 MSTORE PUSH1 0x20 DUP2 SWAP1 MSTORE PUSH1 0x40 DUP2 KECCAK256 DUP4 DUP4 SUB SWAP1 SSTORE PUSH1 0x2 DUP1 SLOAD DUP5 SWAP3 SWAP1 PUSH2 0x13D6 SWAP1 DUP5 SWAP1 PUSH2 0x2037 JUMP JUMPDEST SWAP1 SWAP2 SSTORE POP POP PUSH1 0x40 MLOAD PUSH1 0x0 SWAP1 PUSH1 0x1 PUSH1 0x1 PUSH1 0xA0 SHL SUB DUP6 AND SWAP1 PUSH32 0xDDF252AD1BE2C89B69C2B068FC378DAA952BA7F163C4A11628F55A4DF523B3EF SWAP1 PUSH2 0x1419 SWAP1 DUP7 SWAP1 PUSH2 0x1BD2 JUMP JUMPDEST PUSH1 0x40 MLOAD DUP1 SWAP2 SUB SWAP1 LOG3 PUSH2 0x93A DUP4 PUSH1 0x0 DUP5 PUSH2 0x93A JUMP JUMPDEST PUSH1 0x0 DUP1 PUSH2 0x1438 PUSH2 0x10A3 JUMP JUMPDEST SWAP1 POP PUSH1 0x0 PUSH2 0x1446 DUP3 DUP7 PUSH2 0xDC9 JUMP JUMPDEST SWAP1 POP DUP4 DUP2 LT ISZERO PUSH2 0x1468 JUMPI PUSH1 0x40 MLOAD PUSH3 0x461BCD PUSH1 0xE5 SHL DUP2 MSTORE PUSH1 0x4 ADD PUSH2 0x63A SWAP1 PUSH2 0x1EED JUMP JUMPDEST PUSH2 0x8A4 DUP3 DUP7 DUP7 DUP5 SUB PUSH2 0x1565 JUMP JUMPDEST PUSH2 0x147D PUSH2 0xAD8 JUMP JUMPDEST PUSH2 0x1499 JUMPI PUSH1 0x40 MLOAD PUSH3 0x461BCD PUSH1 0xE5 SHL DUP2 MSTORE PUSH1 0x4 ADD PUSH2 0x63A SWAP1 PUSH2 0x1C86 JUMP JUMPDEST PUSH1 0x6 DUP1 SLOAD PUSH1 0xFF NOT AND SWAP1 SSTORE PUSH32 0x5DB9EE0A495BF2E6FF9C91A7834C1BA4FDD244A5E8AA4E537BD38AEAE4B073AA PUSH2 0x12DC PUSH2 0x10A3 JUMP JUMPDEST PUSH1 0x0 PUSH1 0x1 PUSH1 0x1 PUSH1 0xA0 SHL SUB DUP3 AND PUSH2 0x14E1 JUMPI PUSH1 0x0 DUP1 REVERT JUMPDEST POP PUSH1 0x1 PUSH1 0x1 PUSH1 0xA0 SHL SUB AND PUSH1 0x0 SWAP1 DUP2 MSTORE PUSH1 0x20 SWAP2 SWAP1 SWAP2 MSTORE PUSH1 0x40 SWAP1 KECCAK256 SLOAD PUSH1 0xFF AND SWAP1 JUMP JUMPDEST PUSH2 0x150B DUP3 DUP3 PUSH2 0xC63 JUMP JUMPDEST PUSH2 0x91A JUMPI PUSH2 0x1523 DUP2 PUSH1 0x1 PUSH1 0x1 PUSH1 0xA0 SHL SUB AND PUSH1 0x14 PUSH2 0x17B1 JUMP JUMPDEST PUSH2 0x152E DUP4 PUSH1 0x20 PUSH2 0x17B1 JUMP JUMPDEST PUSH1 0x40 MLOAD PUSH1 0x20 ADD PUSH2 0x153F SWAP3 SWAP2 SWAP1 PUSH2 0x1B3E JUMP JUMPDEST PUSH1 0x40 DUP1 MLOAD PUSH1 0x1F NOT DUP2 DUP5 SUB ADD DUP2 MSTORE SWAP1 DUP3 SWAP1 MSTORE PUSH3 0x461BCD PUSH1 0xE5 SHL DUP3 MSTORE PUSH2 0x63A SWAP2 PUSH1 0x4 ADD PUSH2 0x1BDB JUMP JUMPDEST PUSH1 0x1 PUSH1 0x1 PUSH1 0xA0 SHL SUB DUP4 AND PUSH2 0x158B JUMPI PUSH1 0x40 MLOAD PUSH3 0x461BCD PUSH1 0xE5 SHL DUP2 MSTORE PUSH1 0x4 ADD PUSH2 0x63A SWAP1 PUSH2 0x1EA9 JUMP JUMPDEST PUSH1 0x1 PUSH1 0x1 PUSH1 0xA0 SHL SUB DUP3 AND PUSH2 0x15B1 JUMPI PUSH1 0x40 MLOAD PUSH3 0x461BCD PUSH1 0xE5 SHL DUP2 MSTORE PUSH1 0x4 ADD PUSH2 0x63A SWAP1 PUSH2 0x1CF6 JUMP JUMPDEST PUSH1 0x1 PUSH1 0x1 PUSH1 0xA0 SHL SUB DUP1 DUP5 AND PUSH1 0x0 DUP2 DUP2 MSTORE PUSH1 0x1 PUSH1 0x20 SWAP1 DUP2 MSTORE PUSH1 0x40 DUP1 DUP4 KECCAK256 SWAP5 DUP8 AND DUP1 DUP5 MSTORE SWAP5 SWAP1 SWAP2 MSTORE SWAP1 DUP2 SWAP1 KECCAK256 DUP5 SWAP1 SSTORE MLOAD PUSH32 0x8C5BE1E5EBEC7D5BD14F71427D1E84F3DD0314C0F7B2291E5B200AC8C7C3B925 SWAP1 PUSH2 0x160C SWAP1 DUP6 SWAP1 PUSH2 0x1BD2 JUMP JUMPDEST PUSH1 0x40 MLOAD DUP1 SWAP2 SUB SWAP1 LOG3 POP POP POP JUMP JUMPDEST PUSH2 0x1621 PUSH2 0xAD8 JUMP JUMPDEST ISZERO PUSH2 0x163E JUMPI PUSH1 0x40 MLOAD PUSH3 0x461BCD PUSH1 0xE5 SHL DUP2 MSTORE PUSH1 0x4 ADD PUSH2 0x63A SWAP1 PUSH2 0x1DF9 JUMP JUMPDEST PUSH2 0x1647 CALLER PUSH2 0xE86 JUMP JUMPDEST ISZERO PUSH2 0x1664 JUMPI PUSH1 0x40 MLOAD PUSH3 0x461BCD PUSH1 0xE5 SHL DUP2 MSTORE PUSH1 0x4 ADD PUSH2 0x63A SWAP1 PUSH2 0x1F81 JUMP JUMPDEST PUSH2 0x168E PUSH32 0xB19546DFF01E856FB3F010C267A7B1C60363CF8A4664E21CC89C26224620214E CALLER PUSH2 0xC63 JUMP JUMPDEST DUP1 PUSH2 0x16AC JUMPI POP PUSH2 0x16AC PUSH1 0x0 DUP1 MLOAD PUSH1 0x20 PUSH2 0x213E DUP4 CODECOPY DUP2 MLOAD SWAP2 MSTORE CALLER PUSH2 0xC63 JUMP JUMPDEST DUP1 PUSH2 0x16CA JUMPI POP PUSH2 0x16CA PUSH1 0x0 DUP1 MLOAD PUSH1 0x20 PUSH2 0x211E DUP4 CODECOPY DUP2 MLOAD SWAP2 MSTORE CALLER PUSH2 0xC63 JUMP JUMPDEST PUSH2 0x16E6 JUMPI PUSH1 0x40 MLOAD PUSH3 0x461BCD PUSH1 0xE5 SHL DUP2 MSTORE PUSH1 0x4 ADD PUSH2 0x63A SWAP1 PUSH2 0x1FAA JUMP JUMPDEST PUSH2 0x93A DUP4 DUP4 DUP4 PUSH2 0x93A JUMP JUMPDEST PUSH1 0xFF DUP3 AND PUSH1 0x0 SWAP1 DUP2 MSTORE PUSH1 0x20 DUP5 SWAP1 MSTORE PUSH1 0x40 SWAP1 KECCAK256 PUSH1 0x1 PUSH1 0x1 PUSH1 0xA0 SHL SUB DUP3 AND PUSH2 0x1716 JUMPI PUSH1 0x0 DUP1 REVERT JUMPDEST PUSH2 0x1720 DUP2 DUP4 PUSH2 0x14CC JUMP JUMPDEST PUSH2 0x1729 JUMPI PUSH1 0x0 DUP1 REVERT JUMPDEST PUSH1 0x1 PUSH1 0x1 PUSH1 0xA0 SHL SUB SWAP1 SWAP2 AND PUSH1 0x0 SWAP1 DUP2 MSTORE PUSH1 0x20 SWAP2 SWAP1 SWAP2 MSTORE PUSH1 0x40 SWAP1 KECCAK256 DUP1 SLOAD PUSH1 0xFF NOT AND SWAP1 SSTORE POP POP JUMP JUMPDEST PUSH1 0xFF DUP3 AND PUSH1 0x0 SWAP1 DUP2 MSTORE PUSH1 0x20 DUP5 SWAP1 MSTORE PUSH1 0x40 SWAP1 KECCAK256 PUSH1 0x1 PUSH1 0x1 PUSH1 0xA0 SHL SUB DUP3 AND PUSH2 0x1774 JUMPI PUSH1 0x0 DUP1 REVERT JUMPDEST PUSH2 0x177E DUP2 DUP4 PUSH2 0x14CC JUMP JUMPDEST ISZERO PUSH2 0x1788 JUMPI PUSH1 0x0 DUP1 REVERT JUMPDEST PUSH1 0x1 PUSH1 0x1 PUSH1 0xA0 SHL SUB SWAP1 SWAP2 AND PUSH1 0x0 SWAP1 DUP2 MSTORE PUSH1 0x20 SWAP2 SWAP1 SWAP2 MSTORE PUSH1 0x40 SWAP1 KECCAK256 DUP1 SLOAD PUSH1 0xFF NOT AND PUSH1 0x1 OR SWAP1 SSTORE POP POP JUMP JUMPDEST PUSH1 0x60 PUSH1 0x0 PUSH2 0x17C0 DUP4 PUSH1 0x2 PUSH2 0x2018 JUMP JUMPDEST PUSH2 0x17CB SWAP1 PUSH1 0x2 PUSH2 0x2000 JUMP JUMPDEST PUSH8 0xFFFFFFFFFFFFFFFF DUP2 GT ISZERO PUSH2 0x17F1 JUMPI PUSH4 0x4E487B71 PUSH1 0xE0 SHL PUSH1 0x0 MSTORE PUSH1 0x41 PUSH1 0x4 MSTORE PUSH1 0x24 PUSH1 0x0 REVERT JUMPDEST PUSH1 0x40 MLOAD SWAP1 DUP1 DUP3 MSTORE DUP1 PUSH1 0x1F ADD PUSH1 0x1F NOT AND PUSH1 0x20 ADD DUP3 ADD PUSH1 0x40 MSTORE DUP1 ISZERO PUSH2 0x181B JUMPI PUSH1 0x20 DUP3 ADD DUP2 DUP1 CALLDATASIZE DUP4 CALLDATACOPY ADD SWAP1 POP JUMPDEST POP SWAP1 POP PUSH1 0x3 PUSH1 0xFC SHL DUP2 PUSH1 0x0 DUP2 MLOAD DUP2 LT PUSH2 0x1844 JUMPI PUSH4 0x4E487B71 PUSH1 0xE0 SHL PUSH1 0x0 MSTORE PUSH1 0x32 PUSH1 0x4 MSTORE PUSH1 0x24 PUSH1 0x0 REVERT JUMPDEST PUSH1 0x20 ADD ADD SWAP1 PUSH1 0x1 PUSH1 0x1 PUSH1 0xF8 SHL SUB NOT AND SWAP1 DUP2 PUSH1 0x0 BYTE SWAP1 MSTORE8 POP PUSH1 0xF PUSH1 0xFB SHL DUP2 PUSH1 0x1 DUP2 MLOAD DUP2 LT PUSH2 0x1881 JUMPI PUSH4 0x4E487B71 PUSH1 0xE0 SHL PUSH1 0x0 MSTORE PUSH1 0x32 PUSH1 0x4 MSTORE PUSH1 0x24 PUSH1 0x0 REVERT JUMPDEST PUSH1 0x20 ADD ADD SWAP1 PUSH1 0x1 PUSH1 0x1 PUSH1 0xF8 SHL SUB NOT AND SWAP1 DUP2 PUSH1 0x0 BYTE SWAP1 MSTORE8 POP PUSH1 0x0 PUSH2 0x18A5 DUP5 PUSH1 0x2 PUSH2 0x2018 JUMP JUMPDEST PUSH2 0x18B0 SWAP1 PUSH1 0x1 PUSH2 0x2000 JUMP JUMPDEST SWAP1 POP JUMPDEST PUSH1 0x1 DUP2 GT ISZERO PUSH2 0x1944 JUMPI PUSH16 0x181899199A1A9B1B9C1CB0B131B232B3 PUSH1 0x81 SHL DUP6 PUSH1 0xF AND PUSH1 0x10 DUP2 LT PUSH2 0x18F2 JUMPI PUSH4 0x4E487B71 PUSH1 0xE0 SHL PUSH1 0x0 MSTORE PUSH1 0x32 PUSH1 0x4 MSTORE PUSH1 0x24 PUSH1 0x0 REVERT JUMPDEST BYTE PUSH1 0xF8 SHL DUP3 DUP3 DUP2 MLOAD DUP2 LT PUSH2 0x1916 JUMPI PUSH4 0x4E487B71 PUSH1 0xE0 SHL PUSH1 0x0 MSTORE PUSH1 0x32 PUSH1 0x4 MSTORE PUSH1 0x24 PUSH1 0x0 REVERT JUMPDEST PUSH1 0x20 ADD ADD SWAP1 PUSH1 0x1 PUSH1 0x1 PUSH1 0xF8 SHL SUB NOT AND SWAP1 DUP2 PUSH1 0x0 BYTE SWAP1 MSTORE8 POP PUSH1 0x4 SWAP5 SWAP1 SWAP5 SHR SWAP4 PUSH2 0x193D DUP2 PUSH2 0x207A JUMP JUMPDEST SWAP1 POP PUSH2 0x18B3 JUMP JUMPDEST POP DUP4 ISZERO PUSH2 0x1231 JUMPI PUSH1 0x40 MLOAD PUSH3 0x461BCD PUSH1 0xE5 SHL DUP2 MSTORE PUSH1 0x4 ADD PUSH2 0x63A SWAP1 PUSH2 0x1C0E JUMP JUMPDEST DUP1 CALLDATALOAD PUSH1 0x1 PUSH1 0x1 PUSH1 0xA0 SHL SUB DUP2 AND DUP2 EQ PUSH2 0x530 JUMPI PUSH1 0x0 DUP1 REVERT JUMPDEST PUSH1 0x0 DUP1 DUP4 PUSH1 0x1F DUP5 ADD SLT PUSH2 0x198B JUMPI DUP2 DUP3 REVERT JUMPDEST POP DUP2 CALLDATALOAD PUSH8 0xFFFFFFFFFFFFFFFF DUP2 GT ISZERO PUSH2 0x19A2 JUMPI DUP2 DUP3 REVERT JUMPDEST PUSH1 0x20 DUP4 ADD SWAP2 POP DUP4 PUSH1 0x20 DUP1 DUP4 MUL DUP6 ADD ADD GT ISZERO PUSH2 0x19BC JUMPI PUSH1 0x0 DUP1 REVERT JUMPDEST SWAP3 POP SWAP3 SWAP1 POP JUMP JUMPDEST PUSH1 0x0 PUSH1 0x20 DUP3 DUP5 SUB SLT ISZERO PUSH2 0x19D4 JUMPI DUP1 DUP2 REVERT JUMPDEST PUSH2 0x1231 DUP3 PUSH2 0x1963 JUMP JUMPDEST PUSH1 0x0 DUP1 PUSH1 0x40 DUP4 DUP6 SUB SLT ISZERO PUSH2 0x19EF JUMPI DUP1 DUP2 REVERT JUMPDEST PUSH2 0x19F8 DUP4 PUSH2 0x1963 JUMP JUMPDEST SWAP2 POP PUSH2 0x1A06 PUSH1 0x20 DUP5 ADD PUSH2 0x1963 JUMP JUMPDEST SWAP1 POP SWAP3 POP SWAP3 SWAP1 POP JUMP JUMPDEST PUSH1 0x0 DUP1 PUSH1 0x0 PUSH1 0x60 DUP5 DUP7 SUB SLT ISZERO PUSH2 0x1A23 JUMPI DUP1 DUP2 REVERT JUMPDEST PUSH2 0x1A2C DUP5 PUSH2 0x1963 JUMP JUMPDEST SWAP3 POP PUSH2 0x1A3A PUSH1 0x20 DUP6 ADD PUSH2 0x1963 JUMP JUMPDEST SWAP2 POP PUSH1 0x40 DUP5 ADD CALLDATALOAD SWAP1 POP SWAP3 POP SWAP3 POP SWAP3 JUMP JUMPDEST PUSH1 0x0 DUP1 PUSH1 0x40 DUP4 DUP6 SUB SLT ISZERO PUSH2 0x1A5C JUMPI DUP2 DUP3 REVERT JUMPDEST PUSH2 0x1A65 DUP4 PUSH2 0x1963 JUMP JUMPDEST SWAP5 PUSH1 0x20 SWAP4 SWAP1 SWAP4 ADD CALLDATALOAD SWAP4 POP POP POP JUMP JUMPDEST PUSH1 0x0 DUP1 PUSH1 0x0 DUP1 PUSH1 0x40 DUP6 DUP8 SUB SLT ISZERO PUSH2 0x1A88 JUMPI DUP1 DUP2 REVERT JUMPDEST DUP5 CALLDATALOAD PUSH8 0xFFFFFFFFFFFFFFFF DUP1 DUP3 GT ISZERO PUSH2 0x1A9F JUMPI DUP3 DUP4 REVERT JUMPDEST PUSH2 0x1AAB DUP9 DUP4 DUP10 ADD PUSH2 0x197A JUMP JUMPDEST SWAP1 SWAP7 POP SWAP5 POP PUSH1 0x20 DUP8 ADD CALLDATALOAD SWAP2 POP DUP1 DUP3 GT ISZERO PUSH2 0x1AC3 JUMPI DUP3 DUP4 REVERT JUMPDEST POP PUSH2 0x1AD0 DUP8 DUP3 DUP9 ADD PUSH2 0x197A JUMP JUMPDEST SWAP6 SWAP9 SWAP5 SWAP8 POP SWAP6 POP POP POP POP JUMP JUMPDEST PUSH1 0x0 PUSH1 0x20 DUP3 DUP5 SUB SLT ISZERO PUSH2 0x1AED JUMPI DUP1 DUP2 REVERT JUMPDEST POP CALLDATALOAD SWAP2 SWAP1 POP JUMP JUMPDEST PUSH1 0x0 DUP1 PUSH1 0x40 DUP4 DUP6 SUB SLT ISZERO PUSH2 0x1B06 JUMPI DUP2 DUP3 REVERT JUMPDEST DUP3 CALLDATALOAD SWAP2 POP PUSH2 0x1A06 PUSH1 0x20 DUP5 ADD PUSH2 0x1963 JUMP JUMPDEST PUSH1 0x0 PUSH1 0x20 DUP3 DUP5 SUB SLT ISZERO PUSH2 0x1B27 JUMPI DUP1 DUP2 REVERT JUMPDEST DUP2 CALLDATALOAD PUSH1 0x1 PUSH1 0x1 PUSH1 0xE0 SHL SUB NOT DUP2 AND DUP2 EQ PUSH2 0x1231 JUMPI DUP2 DUP3 REVERT JUMPDEST PUSH1 0x0 PUSH32 0x416363657373436F6E74726F6C3A206163636F756E7420000000000000000000 DUP3 MSTORE DUP4 MLOAD PUSH2 0x1B76 DUP2 PUSH1 0x17 DUP6 ADD PUSH1 0x20 DUP9 ADD PUSH2 0x204E JUMP JUMPDEST PUSH17 0x1034B99036B4B9B9B4B733903937B6329 PUSH1 0x7D SHL PUSH1 0x17 SWAP2 DUP5 ADD SWAP2 DUP3 ADD MSTORE DUP4 MLOAD PUSH2 0x1BA7 DUP2 PUSH1 0x28 DUP5 ADD PUSH1 0x20 DUP9 ADD PUSH2 0x204E JUMP JUMPDEST ADD PUSH1 0x28 ADD SWAP5 SWAP4 POP POP POP POP JUMP JUMPDEST PUSH1 0x1 PUSH1 0x1 PUSH1 0xA0 SHL SUB SWAP2 SWAP1 SWAP2 AND DUP2 MSTORE PUSH1 0x20 ADD SWAP1 JUMP JUMPDEST SWAP1 ISZERO ISZERO DUP2 MSTORE PUSH1 0x20 ADD SWAP1 JUMP JUMPDEST SWAP1 DUP2 MSTORE PUSH1 0x20 ADD SWAP1 JUMP JUMPDEST PUSH1 0x0 PUSH1 0x20 DUP3 MSTORE DUP3 MLOAD DUP1 PUSH1 0x20 DUP5 ADD MSTORE PUSH2 0x1BFA DUP2 PUSH1 0x40 DUP6 ADD PUSH1 0x20 DUP8 ADD PUSH2 0x204E JUMP JUMPDEST PUSH1 0x1F ADD PUSH1 0x1F NOT AND SWAP2 SWAP1 SWAP2 ADD PUSH1 0x40 ADD SWAP3 SWAP2 POP POP JUMP JUMPDEST PUSH1 0x20 DUP1 DUP3 MSTORE DUP2 DUP2 ADD MSTORE PUSH32 0x537472696E67733A20686578206C656E67746820696E73756666696369656E74 PUSH1 0x40 DUP3 ADD MSTORE PUSH1 0x60 ADD SWAP1 JUMP JUMPDEST PUSH1 0x20 DUP1 DUP3 MSTORE PUSH1 0x23 SWAP1 DUP3 ADD MSTORE PUSH32 0x45524332303A207472616E7366657220746F20746865207A65726F2061646472 PUSH1 0x40 DUP3 ADD MSTORE PUSH3 0x657373 PUSH1 0xE8 SHL PUSH1 0x60 DUP3 ADD MSTORE PUSH1 0x80 ADD SWAP1 JUMP JUMPDEST PUSH1 0x20 DUP1 DUP3 MSTORE PUSH1 0x14 SWAP1 DUP3 ADD MSTORE PUSH20 0x14185D5CD8589B194E881B9BDD081C185D5CD959 PUSH1 0x62 SHL PUSH1 0x40 DUP3 ADD MSTORE PUSH1 0x60 ADD SWAP1 JUMP JUMPDEST PUSH1 0x20 DUP1 DUP3 MSTORE PUSH1 0x22 SWAP1 DUP3 ADD MSTORE PUSH32 0x45524332303A206275726E20616D6F756E7420657863656564732062616C616E PUSH1 0x40 DUP3 ADD MSTORE PUSH2 0x6365 PUSH1 0xF0 SHL PUSH1 0x60 DUP3 ADD MSTORE PUSH1 0x80 ADD SWAP1 JUMP JUMPDEST PUSH1 0x20 DUP1 DUP3 MSTORE PUSH1 0x22 SWAP1 DUP3 ADD MSTORE PUSH32 0x45524332303A20617070726F766520746F20746865207A65726F206164647265 PUSH1 0x40 DUP3 ADD MSTORE PUSH2 0x7373 PUSH1 0xF0 SHL PUSH1 0x60 DUP3 ADD MSTORE PUSH1 0x80 ADD SWAP1 JUMP JUMPDEST PUSH1 0x20 DUP1 DUP3 MSTORE PUSH1 0x1D SWAP1 DUP3 ADD MSTORE PUSH32 0x45524332303A20696E73756666696369656E7420616C6C6F77616E6365000000 PUSH1 0x40 DUP3 ADD MSTORE PUSH1 0x60 ADD SWAP1 JUMP JUMPDEST PUSH1 0x20 DUP1 DUP3 MSTORE PUSH1 0x26 SWAP1 DUP3 ADD MSTORE PUSH32 0x45524332303A207472616E7366657220616D6F756E7420657863656564732062 PUSH1 0x40 DUP3 ADD MSTORE PUSH6 0x616C616E6365 PUSH1 0xD0 SHL PUSH1 0x60 DUP3 ADD MSTORE PUSH1 0x80 ADD SWAP1 JUMP JUMPDEST PUSH1 0x20 DUP1 DUP3 MSTORE PUSH1 0x24 SWAP1 DUP3 ADD MSTORE PUSH32 0x456D707479206172726179206F72206172726179206C656E677468206D69736D PUSH1 0x40 DUP3 ADD MSTORE PUSH4 0xC2E8C6D PUSH1 0xE3 SHL PUSH1 0x60 DUP3 ADD MSTORE PUSH1 0x80 ADD SWAP1 JUMP JUMPDEST PUSH1 0x20 DUP1 DUP3 MSTORE PUSH1 0x10 SWAP1 DUP3 ADD MSTORE PUSH16 0x14185D5CD8589B194E881C185D5CD959 PUSH1 0x82 SHL PUSH1 0x40 DUP3 ADD MSTORE PUSH1 0x60 ADD SWAP1 JUMP JUMPDEST PUSH1 0x20 DUP1 DUP3 MSTORE PUSH1 0x21 SWAP1 DUP3 ADD MSTORE PUSH32 0x45524332303A206275726E2066726F6D20746865207A65726F20616464726573 PUSH1 0x40 DUP3 ADD MSTORE PUSH1 0x73 PUSH1 0xF8 SHL PUSH1 0x60 DUP3 ADD MSTORE PUSH1 0x80 ADD SWAP1 JUMP JUMPDEST PUSH1 0x20 DUP1 DUP3 MSTORE PUSH1 0x25 SWAP1 DUP3 ADD MSTORE PUSH32 0x45524332303A207472616E736665722066726F6D20746865207A65726F206164 PUSH1 0x40 DUP3 ADD MSTORE PUSH5 0x6472657373 PUSH1 0xD8 SHL PUSH1 0x60 DUP3 ADD MSTORE PUSH1 0x80 ADD SWAP1 JUMP JUMPDEST PUSH1 0x20 DUP1 DUP3 MSTORE PUSH1 0x24 SWAP1 DUP3 ADD MSTORE PUSH32 0x45524332303A20617070726F76652066726F6D20746865207A65726F20616464 PUSH1 0x40 DUP3 ADD MSTORE PUSH4 0x72657373 PUSH1 0xE0 SHL PUSH1 0x60 DUP3 ADD MSTORE PUSH1 0x80 ADD SWAP1 JUMP JUMPDEST PUSH1 0x20 DUP1 DUP3 MSTORE PUSH1 0x25 SWAP1 DUP3 ADD MSTORE PUSH32 0x45524332303A2064656372656173656420616C6C6F77616E63652062656C6F77 PUSH1 0x40 DUP3 ADD MSTORE PUSH5 0x207A65726F PUSH1 0xD8 SHL PUSH1 0x60 DUP3 ADD MSTORE PUSH1 0x80 ADD SWAP1 JUMP JUMPDEST PUSH1 0x20 DUP1 DUP3 MSTORE PUSH1 0x2F SWAP1 DUP3 ADD MSTORE PUSH32 0x416363657373436F6E74726F6C3A2063616E206F6E6C792072656E6F756E6365 PUSH1 0x40 DUP3 ADD MSTORE PUSH15 0x103937B632B9903337B91039B2B633 PUSH1 0x89 SHL PUSH1 0x60 DUP3 ADD MSTORE PUSH1 0x80 ADD SWAP1 JUMP JUMPDEST PUSH1 0x20 DUP1 DUP3 MSTORE PUSH1 0xF SWAP1 DUP3 ADD MSTORE PUSH15 0x119C99595E9959081858D8DBDD5B9D PUSH1 0x8A SHL PUSH1 0x40 DUP3 ADD MSTORE PUSH1 0x60 ADD SWAP1 JUMP JUMPDEST PUSH1 0x20 DUP1 DUP3 MSTORE PUSH1 0x28 SWAP1 DUP3 ADD MSTORE PUSH32 0x416363657373207265737472696374656420746F20706172746963756C617220 PUSH1 0x40 DUP3 ADD MSTORE PUSH8 0x6163636F756E7473 PUSH1 0xC0 SHL PUSH1 0x60 DUP3 ADD MSTORE PUSH1 0x80 ADD SWAP1 JUMP JUMPDEST PUSH1 0xFF SWAP2 SWAP1 SWAP2 AND DUP2 MSTORE PUSH1 0x20 ADD SWAP1 JUMP JUMPDEST PUSH1 0x0 DUP3 NOT DUP3 GT ISZERO PUSH2 0x2013 JUMPI PUSH2 0x2013 PUSH2 0x20E7 JUMP JUMPDEST POP ADD SWAP1 JUMP JUMPDEST PUSH1 0x0 DUP2 PUSH1 0x0 NOT DIV DUP4 GT DUP3 ISZERO ISZERO AND ISZERO PUSH2 0x2032 JUMPI PUSH2 0x2032 PUSH2 0x20E7 JUMP JUMPDEST POP MUL SWAP1 JUMP JUMPDEST PUSH1 0x0 DUP3 DUP3 LT ISZERO PUSH2 0x2049 JUMPI PUSH2 0x2049 PUSH2 0x20E7 JUMP JUMPDEST POP SUB SWAP1 JUMP JUMPDEST PUSH1 0x0 JUMPDEST DUP4 DUP2 LT ISZERO PUSH2 0x2069 JUMPI DUP2 DUP2 ADD MLOAD DUP4 DUP3 ADD MSTORE PUSH1 0x20 ADD PUSH2 0x2051 JUMP JUMPDEST DUP4 DUP2 GT ISZERO PUSH2 0x109D JUMPI POP POP PUSH1 0x0 SWAP2 ADD MSTORE JUMP JUMPDEST PUSH1 0x0 DUP2 PUSH2 0x2089 JUMPI PUSH2 0x2089 PUSH2 0x20E7 JUMP JUMPDEST POP PUSH1 0x0 NOT ADD SWAP1 JUMP JUMPDEST PUSH1 0x2 DUP2 DIV PUSH1 0x1 DUP3 AND DUP1 PUSH2 0x20A5 JUMPI PUSH1 0x7F DUP3 AND SWAP2 POP JUMPDEST PUSH1 0x20 DUP3 LT DUP2 EQ ISZERO PUSH2 0x20C6 JUMPI PUSH4 0x4E487B71 PUSH1 0xE0 SHL PUSH1 0x0 MSTORE PUSH1 0x22 PUSH1 0x4 MSTORE PUSH1 0x24 PUSH1 0x0 REVERT JUMPDEST POP SWAP2 SWAP1 POP JUMP JUMPDEST PUSH1 0x0 PUSH1 0x0 NOT DUP3 EQ ISZERO PUSH2 0x20E0 JUMPI PUSH2 0x20E0 PUSH2 0x20E7 JUMP JUMPDEST POP PUSH1 0x1 ADD SWAP1 JUMP JUMPDEST PUSH4 0x4E487B71 PUSH1 0xE0 SHL PUSH1 0x0 MSTORE PUSH1 0x11 PUSH1 0x4 MSTORE PUSH1 0x24 PUSH1 0x0 REVERT INVALID 0xED 0x5E SWAP2 0xCE PUSH23 0xFC83BD4BF51D24916A0B6FA9B34212005C44254B4CB64E 0x4B 0xC0 PUSH32 0x3A97667070C54EF182B0F5858B034BEAC1B6F3089AA2D3188BB1E8929F4FA9B9 0x29 LOG4 SWAP9 SMOD KECCAK256 0x5C 0xE4 0xD3 SSTORE MULMOD 0x2E CREATE2 0xA8 LOG1 DUP16 JUMP 0xE8 SWAP2 EXTCODECOPY DELEGATECALL LOG2 ADD 0xFB 0xE2 DUP8 DUP3 JUMPDEST MULMOD JUMP SWAP4 0xC2 OR PUSH22 0xA2646970667358221220396B6DC0DE3605261D29636E 0xFB 0xCC PUSH17 0x4D45497A114475BC875F452BDD2A51CDD4 PUSH5 0x736F6C6343 STOP ADDMOD STOP STOP CALLER 0xB1 SWAP6 CHAINID 0xDF CREATE 0x1E DUP6 PUSH16 0xB3F010C267A7B1C60363CF8A4664E21C 0xC8 SWAP13 0x26 0x22 CHAINID KECCAK256 0x21 0x4E SWAP8 PUSH7 0x7070C54EF182B0 CREATE2 DUP6 DUP12 SUB 0x4B 0xEA 0xC1 0xB6 RETURN ADDMOD SWAP11 LOG2 0xD3 XOR DUP12 0xB1 0xE8 SWAP3 SWAP16 0x4F 0xA9 0xB9 0x29 LOG4 SWAP9 SMOD KECCAK256 0x5C 0xE4 0xD3 SSTORE MULMOD 0x2E CREATE2 0xA8 LOG1 DUP16 JUMP 0xE8 SWAP2 EXTCODECOPY DELEGATECALL LOG2 ADD 0xFB 0xE2 DUP8 DUP3 JUMPDEST MULMOD JUMP SWAP4 0xC2 OR PUSH22 0x0 "
        },
        "methodIdentifiers": {
          "ADMIN_ROLE()": "75b238fc",
          "ATTORNEY_ROLE()": "0d5b1fb4",
          "DEFAULT_ADMIN_ROLE()": "a217fddf",
          "FROZEN()": "3b5764eb",
          "OPERATOR_ROLE()": "f5b541a6",
          "OWNER_ROLE()": "e58378bb",
          "WHITELIST()": "1bb7cc99",
          "addAdmin(address)": "70480275",
          "addAttorney(address)": "380a75bf",
          "addOperator(address)": "9870d7fe",
          "addToWhitelist(address)": "e43252d7",
          "allowance(address,address)": "dd62ed3e",
          "approve(address,uint256)": "095ea7b3",
          "balanceOf(address)": "70a08231",
          "burn(address,uint256)": "9dc29fac",
          "decimals()": "313ce567",
          "decreaseAllowance(address,uint256)": "a457c2d7",
          "freeze(address)": "8d1fdf2f",
          "getRoleAdmin(bytes32)": "248a9ca3",
          "grantRole(bytes32,address)": "2f2ff15d",
          "hasRole(bytes32,address)": "91d14854",
          "increaseAllowance(address,uint256)": "39509351",
          "isFrozen(address)": "e5839836",
          "isWhitelisted(address)": "3af32abf",
          "multiTransfer(address[],uint256[])": "1e89d545",
          "name()": "06fdde03",
          "pause()": "8456cb59",
          "paused()": "5c975abb",
          "removeFromWhitelist(address)": "8ab1d681",
          "renounceRole(bytes32,address)": "36568abe",
          "revokeAdmin(address)": "2d345670",
          "revokeAttorney(address)": "4208c09f",
          "revokeOperator(address)": "fad8b32a",
          "revokeRole(bytes32,address)": "d547741f",
          "supportsInterface(bytes4)": "01ffc9a7",
          "symbol()": "95d89b41",
          "totalSupply()": "18160ddd",
          "transfer(address,uint256)": "a9059cbb",
          "transferFrom(address,address,uint256)": "23b872dd",
          "unPause()": "f7b188a5",
          "unfreeze(address)": "45c8b1a6"
        }
      }
    }
  }
}