{
  "_format": "hh-sol-artifact-1",
  "contractName": "XVTToken",
  "sourceName": "contracts/XVTToken.sol",
  "abi": [
    {
      "inputs": [
        {
          "internalType": "uint256",
          "name": "initialSupply",
          "type": "uint256"
        }
      ],
      "stateMutability": "nonpayable",
      "type": "constructor"
    },
    {
      "anonymous": false,
      "inputs": [
        {
          "indexed": true,
          "internalType": "uint8",
          "name": "groupId",
          "type": "uint8"
        },
        {
          "indexed": true,
          "internalType": "address",
          "name": "account",
          "type": "address"
        }
      ],
      "name": "AddedToGroup",
      "type": "event"
    },
    {
      "anonymous": false,
      "inputs": [
        {
          "indexed": true,
          "internalType": "address",
          "name": "owner",
          "type": "address"
        },
        {
          "indexed": true,
          "internalType": "address",
          "name": "spender",
          "type": "address"
        },
        {
          "indexed": false,
          "internalType": "uint256",
          "name": "value",
          "type": "uint256"
        }
      ],
      "name": "Approval",
      "type": "event"
    },
    {
      "anonymous": false,
      "inputs": [
        {
          "indexed": true,
          "internalType": "address",
          "name": "from",
          "type": "address"
        },
        {
          "indexed": true,
          "internalType": "address",
          "name": "to",
          "type": "address"
        },
        {
          "indexed": false,
          "internalType": "uint256",
          "name": "value",
          "type": "uint256"
        }
      ],
      "name": "MultiTransferPrevented",
      "type": "event"
    },
    {
      "anonymous": false,
      "inputs": [
        {
          "indexed": false,
          "internalType": "address",
          "name": "account",
          "type": "address"
        }
      ],
      "name": "Paused",
      "type": "event"
    },
    {
      "anonymous": false,
      "inputs": [
        {
          "indexed": true,
          "internalType": "uint8",
          "name": "groupId",
          "type": "uint8"
        },
        {
          "indexed": true,
          "internalType": "address",
          "name": "account",
          "type": "address"
        }
      ],
      "name": "RemovedFromGroup",
      "type": "event"
    },
    {
      "anonymous": false,
      "inputs": [
        {
          "indexed": true,
          "internalType": "bytes32",
          "name": "role",
          "type": "bytes32"
        },
        {
          "indexed": true,
          "internalType": "bytes32",
          "name": "previousAdminRole",
          "type": "bytes32"
        },
        {
          "indexed": true,
          "internalType": "bytes32",
          "name": "newAdminRole",
          "type": "bytes32"
        }
      ],
      "name": "RoleAdminChanged",
      "type": "event"
    },
    {
      "anonymous": false,
      "inputs": [
        {
          "indexed": true,
          "internalType": "bytes32",
          "name": "role",
          "type": "bytes32"
        },
        {
          "indexed": true,
          "internalType": "address",
          "name": "account",
          "type": "address"
        },
        {
          "indexed": true,
          "internalType": "address",
          "name": "sender",
          "type": "address"
        }
      ],
      "name": "RoleGranted",
      "type": "event"
    },
    {
      "anonymous": false,
      "inputs": [
        {
          "indexed": true,
          "internalType": "bytes32",
          "name": "role",
          "type": "bytes32"
        },
        {
          "indexed": true,
          "internalType": "address",
          "name": "account",
          "type": "address"
        },
        {
          "indexed": true,
          "internalType": "address",
          "name": "sender",
          "type": "address"
        }
      ],
      "name": "RoleRevoked",
      "type": "event"
    },
    {
      "anonymous": false,
      "inputs": [
        {
          "indexed": true,
          "internalType": "address",
          "name": "from",
          "type": "address"
        },
        {
          "indexed": true,
          "internalType": "address",
          "name": "to",
          "type": "address"
        },
        {
          "indexed": false,
          "internalType": "uint256",
          "name": "value",
          "type": "uint256"
        }
      ],
      "name": "Transfer",
      "type": "event"
    },
    {
      "anonymous": false,
      "inputs": [
        {
          "indexed": false,
          "internalType": "address",
          "name": "account",
          "type": "address"
        }
      ],
      "name": "Unpaused",
      "type": "event"
    },
    {
      "inputs": [],
      "name": "ADMIN_ROLE",
      "outputs": [
        {
          "internalType": "bytes32",
          "name": "",
          "type": "bytes32"
        }
      ],
      "stateMutability": "view",
      "type": "function"
    },
    {
      "inputs": [],
      "name": "ATTORNEY_ROLE",
      "outputs": [
        {
          "internalType": "bytes32",
          "name": "",
          "type": "bytes32"
        }
      ],
      "stateMutability": "view",
      "type": "function"
    },
    {
      "inputs": [],
      "name": "DEFAULT_ADMIN_ROLE",
      "outputs": [
        {
          "internalType": "bytes32",
          "name": "",
          "type": "bytes32"
        }
      ],
      "stateMutability": "view",
      "type": "function"
    },
    {
      "inputs": [],
      "name": "FROZEN",
      "outputs": [
        {
          "internalType": "uint8",
          "name": "",
          "type": "uint8"
        }
      ],
      "stateMutability": "view",
      "type": "function"
    },
    {
      "inputs": [],
      "name": "OPERATOR_ROLE",
      "outputs": [
        {
          "internalType": "bytes32",
          "name": "",
          "type": "bytes32"
        }
      ],
      "stateMutability": "view",
      "type": "function"
    },
    {
      "inputs": [],
      "name": "OWNER_ROLE",
      "outputs": [
        {
          "internalType": "bytes32",
          "name": "",
          "type": "bytes32"
        }
      ],
      "stateMutability": "view",
      "type": "function"
    },
    {
      "inputs": [],
      "name": "WHITELIST",
      "outputs": [
        {
          "internalType": "uint8",
          "name": "",
          "type": "uint8"
        }
      ],
      "stateMutability": "view",
      "type": "function"
    },
    {
      "inputs": [
        {
          "internalType": "address",
          "name": "newAdmin",
          "type": "address"
        }
      ],
      "name": "addAdmin",
      "outputs": [],
      "stateMutability": "nonpayable",
      "type": "function"
    },
    {
      "inputs": [
        {
          "internalType": "address",
          "name": "newAccount",
          "type": "address"
        }
      ],
      "name": "addAttorney",
      "outputs": [],
      "stateMutability": "nonpayable",
      "type": "function"
    },
    {
      "inputs": [
        {
          "internalType": "address",
          "name": "newOperator",
          "type": "address"
        }
      ],
      "name": "addOperator",
      "outputs": [],
      "stateMutability": "nonpayable",
      "type": "function"
    },
    {
      "inputs": [
        {
          "internalType": "address",
          "name": "account",
          "type": "address"
        }
      ],
      "name": "addToWhitelist",
      "outputs": [],
      "stateMutability": "nonpayable",
      "type": "function"
    },
    {
      "inputs": [
        {
          "internalType": "address",
          "name": "owner",
          "type": "address"
        },
        {
          "internalType": "address",
          "name": "spender",
          "type": "address"
        }
      ],
      "name": "allowance",
      "outputs": [
        {
          "internalType": "uint256",
          "name": "",
          "type": "uint256"
        }
      ],
      "stateMutability": "view",
      "type": "function"
    },
    {
      "inputs": [
        {
          "internalType": "address",
          "name": "spender",
          "type": "address"
        },
        {
          "internalType": "uint256",
          "name": "amount",
          "type": "uint256"
        }
      ],
      "name": "approve",
      "outputs": [
        {
          "internalType": "bool",
          "name": "",
          "type": "bool"
        }
      ],
      "stateMutability": "nonpayable",
      "type": "function"
    },
    {
      "inputs": [
        {
          "internalType": "address",
          "name": "account",
          "type": "address"
        }
      ],
      "name": "balanceOf",
      "outputs": [
        {
          "internalType": "uint256",
          "name": "",
          "type": "uint256"
        }
      ],
      "stateMutability": "view",
      "type": "function"
    },
    {
      "inputs": [
        {
          "internalType": "address",
          "name": "from",
          "type": "address"
        },
        {
          "internalType": "uint256",
          "name": "amount",
          "type": "uint256"
        }
      ],
      "name": "burn",
      "outputs": [],
      "stateMutability": "nonpayable",
      "type": "function"
    },
    {
      "inputs": [],
      "name": "decimals",
      "outputs": [
        {
          "internalType": "uint8",
          "name": "",
          "type": "uint8"
        }
      ],
      "stateMutability": "view",
      "type": "function"
    },
    {
      "inputs": [
        {
          "internalType": "address",
          "name": "spender",
          "type": "address"
        },
        {
          "internalType": "uint256",
          "name": "subtractedValue",
          "type": "uint256"
        }
      ],
      "name": "decreaseAllowance",
      "outputs": [
        {
          "internalType": "bool",
          "name": "",
          "type": "bool"
        }
      ],
      "stateMutability": "nonpayable",
      "type": "function"
    },
    {
      "inputs": [
        {
          "internalType": "address",
          "name": "account",
          "type": "address"
        }
      ],
      "name": "freeze",
      "outputs": [],
      "stateMutability": "nonpayable",
      "type": "function"
    },
    {
      "inputs": [
        {
          "internalType": "bytes32",
          "name": "role",
          "type": "bytes32"
        }
      ],
      "name": "getRoleAdmin",
      "outputs": [
        {
          "internalType": "bytes32",
          "name": "",
          "type": "bytes32"
        }
      ],
      "stateMutability": "view",
      "type": "function"
    },
    {
      "inputs": [
        {
          "internalType": "bytes32",
          "name": "role",
          "type": "bytes32"
        },
        {
          "internalType": "address",
          "name": "account",
          "type": "address"
        }
      ],
      "name": "grantRole",
      "outputs": [],
      "stateMutability": "nonpayable",
      "type": "function"
    },
    {
      "inputs": [
        {
          "internalType": "bytes32",
          "name": "role",
          "type": "bytes32"
        },
        {
          "internalType": "address",
          "name": "account",
          "type": "address"
        }
      ],
      "name": "hasRole",
      "outputs": [
        {
          "internalType": "bool",
          "name": "",
          "type": "bool"
        }
      ],
      "stateMutability": "view",
      "type": "function"
    },
    {
      "inputs": [
        {
          "internalType": "address",
          "name": "spender",
          "type": "address"
        },
        {
          "internalType": "uint256",
          "name": "addedValue",
          "type": "uint256"
        }
      ],
      "name": "increaseAllowance",
      "outputs": [
        {
          "internalType": "bool",
          "name": "",
          "type": "bool"
        }
      ],
      "stateMutability": "nonpayable",
      "type": "function"
    },
    {
      "inputs": [
        {
          "internalType": "address",
          "name": "account",
          "type": "address"
        }
      ],
      "name": "isFrozen",
      "outputs": [
        {
          "internalType": "bool",
          "name": "",
          "type": "bool"
        }
      ],
      "stateMutability": "view",
      "type": "function"
    },
    {
      "inputs": [
        {
          "internalType": "address",
          "name": "account",
          "type": "address"
        }
      ],
      "name": "isWhitelisted",
      "outputs": [
        {
          "internalType": "bool",
          "name": "",
          "type": "bool"
        }
      ],
      "stateMutability": "view",
      "type": "function"
    },
    {
      "inputs": [
        {
          "internalType": "address[]",
          "name": "to",
          "type": "address[]"
        },
        {
          "internalType": "uint256[]",
          "name": "amount",
          "type": "uint256[]"
        }
      ],
      "name": "multiTransfer",
      "outputs": [
        {
          "internalType": "bool",
          "name": "",
          "type": "bool"
        }
      ],
      "stateMutability": "nonpayable",
      "type": "function"
    },
    {
      "inputs": [],
      "name": "name",
      "outputs": [
        {
          "internalType": "string",
          "name": "",
          "type": "string"
        }
      ],
      "stateMutability": "view",
      "type": "function"
    },
    {
      "inputs": [],
      "name": "pause",
      "outputs": [],
      "stateMutability": "nonpayable",
      "type": "function"
    },
    {
      "inputs": [],
      "name": "paused",
      "outputs": [
        {
          "internalType": "bool",
          "name": "",
          "type": "bool"
        }
      ],
      "stateMutability": "view",
      "type": "function"
    },
    {
      "inputs": [
        {
          "internalType": "address",
          "name": "account",
          "type": "address"
        }
      ],
      "name": "removeFromWhitelist",
      "outputs": [],
      "stateMutability": "nonpayable",
      "type": "function"
    },
    {
      "inputs": [
        {
          "internalType": "bytes32",
          "name": "role",
          "type": "bytes32"
        },
        {
          "internalType": "address",
          "name": "account",
          "type": "address"
        }
      ],
      "name": "renounceRole",
      "outputs": [],
      "stateMutability": "nonpayable",
      "type": "function"
    },
    {
      "inputs": [
        {
          "internalType": "address",
          "name": "newAdmin",
          "type": "address"
        }
      ],
      "name": "revokeAdmin",
      "outputs": [],
      "stateMutability": "nonpayable",
      "type": "function"
    },
    {
      "inputs": [
        {
          "internalType": "address",
          "name": "newAccount",
          "type": "address"
        }
      ],
      "name": "revokeAttorney",
      "outputs": [],
      "stateMutability": "nonpayable",
      "type": "function"
    },
    {
      "inputs": [
        {
          "internalType": "address",
          "name": "newOperator",
          "type": "address"
        }
      ],
      "name": "revokeOperator",
      "outputs": [],
      "stateMutability": "nonpayable",
      "type": "function"
    },
    {
      "inputs": [
        {
          "internalType": "bytes32",
          "name": "role",
          "type": "bytes32"
        },
        {
          "internalType": "address",
          "name": "account",
          "type": "address"
        }
      ],
      "name": "revokeRole",
      "outputs": [],
      "stateMutability": "nonpayable",
      "type": "function"
    },
    {
      "inputs": [
        {
          "internalType": "bytes4",
          "name": "interfaceId",
          "type": "bytes4"
        }
      ],
      "name": "supportsInterface",
      "outputs": [
        {
          "internalType": "bool",
          "name": "",
          "type": "bool"
        }
      ],
      "stateMutability": "view",
      "type": "function"
    },
    {
      "inputs": [],
      "name": "symbol",
      "outputs": [
        {
          "internalType": "string",
          "name": "",
          "type": "string"
        }
      ],
      "stateMutability": "view",
      "type": "function"
    },
    {
      "inputs": [],
      "name": "totalSupply",
      "outputs": [
        {
          "internalType": "uint256",
          "name": "",
          "type": "uint256"
        }
      ],
      "stateMutability": "view",
      "type": "function"
    },
    {
      "inputs": [
        {
          "internalType": "address",
          "name": "to",
          "type": "address"
        },
        {
          "internalType": "uint256",
          "name": "amount",
          "type": "uint256"
        }
      ],
      "name": "transfer",
      "outputs": [
        {
          "internalType": "bool",
          "name": "",
          "type": "bool"
        }
      ],
      "stateMutability": "nonpayable",
      "type": "function"
    },
    {
      "inputs": [
        {
          "internalType": "address",
          "name": "from",
          "type": "address"
        },
        {
          "internalType": "address",
          "name": "to",
          "type": "address"
        },
        {
          "internalType": "uint256",
          "name": "amount",
          "type": "uint256"
        }
      ],
      "name": "transferFrom",
      "outputs": [
        {
          "internalType": "bool",
          "name": "",
          "type": "bool"
        }
      ],
      "stateMutability": "nonpayable",
      "type": "function"
    },
    {
      "inputs": [],
      "name": "unPause",
      "outputs": [],
      "stateMutability": "nonpayable",
      "type": "function"
    },
    {
      "inputs": [
        {
          "internalType": "address",
          "name": "account",
          "type": "address"
        }
      ],
      "name": "unfreeze",
      "outputs": [],
      "stateMutability": "nonpayable",
      "type": "function"
    }
  ],
  "bytecode": "0x60806040523480156200001157600080fd5b506040516200287d3803806200287d833981016040819052620000349162000524565b6040518060400160405280600381526020016216159560ea1b8152506040518060400160405280600381526020016216159560ea1b8152508160039080519060200190620000849291906200047e565b5080516200009a9060049060208401906200047e565b50506006805460ff1916905550620000b460003362000144565b620000cf6000805160206200281d8339815191523362000144565b620000ea6000805160206200285d8339815191523362000144565b620001056000805160206200283d8339815191523362000144565b620001317fed5e91ce76fc83bd4bf51d24916a0b6fa9b34212005c44254b4cb64e4bc07f3a3362000144565b6200013d338262000154565b506200067a565b62000150828262000232565b5050565b6001600160a01b038216620001865760405162461bcd60e51b81526004016200017d9062000567565b60405180910390fd5b6200019460008383620002be565b8060026000828254620001a8919062000618565b90915550506001600160a01b03821660009081526020819052604081208054839290620001d790849062000618565b90915550506040516001600160a01b038316906000907fddf252ad1be2c89b69c2b068fc378daa952ba7f163c4a11628f55a4df523b3ef906200021c9085906200060f565b60405180910390a36200015060008383620003a9565b6200023e8282620003ae565b620001505760008281526005602090815260408083206001600160a01b03851684529091529020805460ff191660011790556200027a620003d9565b6001600160a01b0316816001600160a01b0316837f2f8788117e7eff1d82e926ec794901d17c78024a50270940304540a733656f0d60405160405180910390a45050565b620002c8620003dd565b15620002e85760405162461bcd60e51b81526004016200017d906200053d565b620002f333620003e6565b15620003135760405162461bcd60e51b81526004016200017d906200059e565b6200032e6000805160206200281d83398151915233620003ae565b80620003505750620003506000805160206200285d83398151915233620003ae565b80620003725750620003726000805160206200283d83398151915233620003ae565b620003915760405162461bcd60e51b81526004016200017d90620005c7565b620003a9838383620003a960201b6200093a1760201c565b505050565b60009182526005602090815260408084206001600160a01b0393909316845291905290205460ff1690565b3390565b60065460ff1690565b6000620003f5600283620003fb565b92915050565b60006200041a838360076200042160201b62000f1b179092919060201c565b9392505050565b60ff821660009081526020849052604081206200043f818462000448565b95945050505050565b60006001600160a01b0382166200045e57600080fd5b506001600160a01b03166000908152602091909152604090205460ff1690565b8280546200048c906200063d565b90600052602060002090601f016020900481019282620004b05760008555620004fb565b82601f10620004cb57805160ff1916838001178555620004fb565b82800160010185558215620004fb579182015b82811115620004fb578251825591602001919060010190620004de565b50620005099291506200050d565b5090565b5b808211156200050957600081556001016200050e565b60006020828403121562000536578081fd5b5051919050565b60208082526010908201526f14185d5cd8589b194e881c185d5cd95960821b604082015260600190565b6020808252601f908201527f45524332303a206d696e7420746f20746865207a65726f206164647265737300604082015260600190565b6020808252600f908201526e119c99595e9959081858d8dbdd5b9d608a1b604082015260600190565b60208082526028908201527f416363657373207265737472696374656420746f20706172746963756c6172206040820152676163636f756e747360c01b606082015260800190565b90815260200190565b600082198211156200063857634e487b7160e01b81526011600452602481fd5b500190565b6002810460018216806200065257607f821691505b602082108114156200067457634e487b7160e01b600052602260045260246000fd5b50919050565b612193806200068a6000396000f3fe608060405234801561001057600080fd5b50600436106102535760003560e01c80637048027511610146578063a217fddf116100c3578063e43252d711610087578063e43252d7146104b7578063e58378bb146104ca578063e5839836146104d2578063f5b541a6146104e5578063f7b188a5146104ed578063fad8b32a146104f557610253565b8063a217fddf14610463578063a457c2d71461046b578063a9059cbb1461047e578063d547741f14610491578063dd62ed3e146104a457610253565b80638d1fdf2f1161010a5780638d1fdf2f1461040f57806391d148541461042257806395d89b41146104355780639870d7fe1461043d5780639dc29fac1461045057610253565b806370480275146103c657806370a08231146103d957806375b238fc146103ec5780638456cb59146103f45780638ab1d681146103fc57610253565b80632f2ff15d116101d45780633af32abf116101985780633af32abf1461037d5780633b5764eb146103905780634208c09f1461039857806345c8b1a6146103ab5780635c975abb146103be57610253565b80632f2ff15d14610329578063313ce5671461033c57806336568abe14610344578063380a75bf14610357578063395093511461036a57610253565b80631bb7cc991161021b5780631bb7cc99146102c65780631e89d545146102db57806323b872dd146102ee578063248a9ca3146103015780632d3456701461031457610253565b806301ffc9a71461025857806306fdde0314610281578063095ea7b3146102965780630d5b1fb4146102a957806318160ddd146102be575b600080fd5b61026b610266366004611b16565b610508565b6040516102789190611bc7565b60405180910390f35b610289610535565b6040516102789190611bdb565b61026b6102a4366004611a4a565b6105c7565b6102b16105f6565b6040516102789190611bd2565b6102b1610608565b6102ce61060e565b6040516102789190611ff2565b61026b6102e9366004611a73565b610613565b61026b6102fc366004611a0f565b610881565b6102b161030f366004611adc565b6108af565b6103276103223660046119c3565b6108c4565b005b610327610337366004611af4565b61091e565b6102ce61093f565b610327610352366004611af4565b610944565b6103276103653660046119c3565b610986565b61026b610378366004611a4a565b6109dc565b61026b61038b3660046119c3565b610a02565b6102ce610a0f565b6103276103a63660046119c3565b610a14565b6103276103b93660046119c3565b610a6a565b61026b610ad8565b6103276103d43660046119c3565b610ae1565b6102b16103e73660046119c3565b610b37565b6102b1610b52565b610327610b64565b61032761040a3660046119c3565b610b87565b61032761041d3660046119c3565b610bf5565b61026b610430366004611af4565b610c63565b610289610c8e565b61032761044b3660046119c3565b610c9d565b61032761045e366004611a4a565b610cf3565b6102b1610d60565b61026b610479366004611a4a565b610d65565b61026b61048c366004611a4a565b610d8b565b61032761049f366004611af4565b610dad565b6102b16104b23660046119dd565b610dc9565b6103276104c53660046119c3565b610df4565b6102b1610e62565b61026b6104e03660046119c3565b610e86565b6102b1610e93565b610327610ea5565b6103276105033660046119c3565b610ec5565b60006001600160e01b03198216637965db0b60e01b148061052d575061052d82610f37565b90505b919050565b60606003805461054490612091565b80601f016020809104026020016040519081016040528092919081815260200182805461057090612091565b80156105bd5780601f10610592576101008083540402835291602001916105bd565b820191906000526020600020905b8154815290600101906020018083116105a057829003601f168201915b5050505050905090565b600060008051602061213e8339815191526105e181610f50565b60006105ed8585610f61565b95945050505050565b6000805160206120fe83398151915281565b60025490565b600181565b600061061d610ad8565b156106435760405162461bcd60e51b815260040161063a90611df9565b60405180910390fd5b61064c33610e86565b156106695760405162461bcd60e51b815260040161063a90611f81565b6106937fb19546dff01e856fb3f010c267a7b1c60363cf8a4664e21cc89c26224620214e33610c63565b806106b157506106b160008051602061213e83398151915233610c63565b806106cf57506106cf60008051602061211e83398151915233610c63565b6106eb5760405162461bcd60e51b815260040161063a90611faa565b83158015906106f957508382145b6107155760405162461bcd60e51b815260040161063a90611db5565b60005b848110156108755761075886868381811061074357634e487b7160e01b600052603260045260246000fd5b90506020020160208101906104e091906119c3565b6107c6576107c13387878481811061078057634e487b7160e01b600052603260045260246000fd5b905060200201602081019061079591906119c3565b8686858181106107b557634e487b7160e01b600052603260045260246000fd5b90506020020135610f79565b610863565b8585828181106107e657634e487b7160e01b600052603260045260246000fd5b90506020020160208101906107fb91906119c3565b6001600160a01b0316337f57b832b60cac2d336bd974f846b5d4c4af5aeeeb2dbd0f8cbd3ea89fc9078eea86868581811061084657634e487b7160e01b600052603260045260246000fd5b9050602002013560405161085a9190611bd2565b60405180910390a35b8061086d816120cc565b915050610718565b50600195945050505050565b60008061088c6110a3565b90506108998582856110a7565b6108a4858585610f79565b506001949350505050565b60009081526005602052604090206001015490565b6108cd33610e86565b156108ea5760405162461bcd60e51b815260040161063a90611f81565b60008051602061213e83398151915261090281610f50565b61091a60008051602061213e83398151915283610dad565b5050565b610927826108af565b61093081610f50565b61093a83836110eb565b505050565b601290565b61094c6110a3565b6001600160a01b0316816001600160a01b03161461097c5760405162461bcd60e51b815260040161063a90611f32565b61091a8282611172565b61098f33610e86565b156109ac5760405162461bcd60e51b815260040161063a90611f81565b60008051602061213e8339815191526109c481610f50565b61091a6000805160206120fe8339815191528361091e565b600060008051602061213e8339815191526109f681610f50565b60006105ed85856111f7565b600061052d600183611223565b600281565b610a1d33610e86565b15610a3a5760405162461bcd60e51b815260040161063a90611f81565b60008051602061213e833981519152610a5281610f50565b61091a6000805160206120fe83398151915283610dad565b610a72610ad8565b15610a8f5760405162461bcd60e51b815260040161063a90611df9565b610a9833610e86565b15610ab55760405162461bcd60e51b815260040161063a90611f81565b60008051602061213e833981519152610acd81610f50565b61091a600283611238565b60065460ff1690565b610aea33610e86565b15610b075760405162461bcd60e51b815260040161063a90611f81565b60008051602061213e833981519152610b1f81610f50565b61091a60008051602061213e8339815191528361091e565b6001600160a01b031660009081526020819052604090205490565b60008051602061213e83398151915281565b6000805160206120fe833981519152610b7c81610f50565b610b84611281565b50565b610b8f610ad8565b15610bac5760405162461bcd60e51b815260040161063a90611df9565b610bb533610e86565b15610bd25760405162461bcd60e51b815260040161063a90611f81565b60008051602061213e833981519152610bea81610f50565b61091a600183611238565b610bfd610ad8565b15610c1a5760405162461bcd60e51b815260040161063a90611df9565b610c2333610e86565b15610c405760405162461bcd60e51b815260040161063a90611f81565b60008051602061213e833981519152610c5881610f50565b61091a6002836112f3565b60009182526005602090815260408084206001600160a01b0393909316845291905290205460ff1690565b60606004805461054490612091565b610ca633610e86565b15610cc35760405162461bcd60e51b815260040161063a90611f81565b60008051602061213e833981519152610cdb81610f50565b61091a60008051602061211e8339815191528361091e565b610cfb610ad8565b15610d185760405162461bcd60e51b815260040161063a90611df9565b610d2133610e86565b15610d3e5760405162461bcd60e51b815260040161063a90611f81565b60008051602061213e833981519152610d5681610f50565b61093a838361133c565b600081565b600060008051602061213e833981519152610d7f81610f50565b60006105ed858561142d565b600080610d966110a3565b9050610da3818585610f79565b5060019392505050565b610db6826108af565b610dbf81610f50565b61093a8383611172565b6001600160a01b03918216600090815260016020908152604080832093909416825291909152205490565b610dfc610ad8565b15610e195760405162461bcd60e51b815260040161063a90611df9565b610e2233610e86565b15610e3f5760405162461bcd60e51b815260040161063a90611f81565b60008051602061213e833981519152610e5781610f50565b61091a6001836112f3565b7fb19546dff01e856fb3f010c267a7b1c60363cf8a4664e21cc89c26224620214e81565b600061052d600283611223565b60008051602061211e83398151915281565b6000805160206120fe833981519152610ebd81610f50565b610b84611475565b610ece33610e86565b15610eeb5760405162461bcd60e51b815260040161063a90611f81565b60008051602061213e833981519152610f0381610f50565b61091a60008051602061211e83398151915283610dad565b60ff821660009081526020849052604081206105ed81846114cc565b6001600160e01b031981166301ffc9a760e01b14919050565b610b8481610f5c6110a3565b611501565b600080610f6c6110a3565b9050610da3818585611565565b6001600160a01b038316610f9f5760405162461bcd60e51b815260040161063a90611e64565b6001600160a01b038216610fc55760405162461bcd60e51b815260040161063a90611c43565b610fd0838383611619565b6001600160a01b038316600090815260208190526040902054818110156110095760405162461bcd60e51b815260040161063a90611d6f565b6001600160a01b03808516600090815260208190526040808220858503905591851681529081208054849290611040908490612000565b92505081905550826001600160a01b0316846001600160a01b03167fddf252ad1be2c89b69c2b068fc378daa952ba7f163c4a11628f55a4df523b3ef8460405161108a9190611bd2565b60405180910390a361109d84848461093a565b50505050565b3390565b60006110b38484610dc9565b9050600019811461109d57818110156110de5760405162461bcd60e51b815260040161063a90611d38565b61109d8484848403611565565b6110f58282610c63565b61091a5760008281526005602090815260408083206001600160a01b03851684529091529020805460ff1916600117905561112e6110a3565b6001600160a01b0316816001600160a01b0316837f2f8788117e7eff1d82e926ec794901d17c78024a50270940304540a733656f0d60405160405180910390a45050565b61117c8282610c63565b1561091a5760008281526005602090815260408083206001600160a01b03851684529091529020805460ff191690556111b36110a3565b6001600160a01b0316816001600160a01b0316837ff6391f5c32d9c69d2a47ea670b442974b53935d1edc7fd64eb21e047a839171b60405160405180910390a45050565b6000806112026110a3565b9050610da38185856112148589610dc9565b61121e9190612000565b611565565b600061123160078484610f1b565b9392505050565b611244600783836116f1565b6040516001600160a01b0382169060ff8416907f0e1900eb0958d3192c4824b787e78e8b534e429190d9d837ecbfb6257a8a1b1c90600090a35050565b611289610ad8565b156112a65760405162461bcd60e51b815260040161063a90611df9565b6006805460ff191660011790557f62e78cea01bee320cd4e420270b5ea74000d11b0c9f74754ebdbfc544b05a2586112dc6110a3565b6040516112e99190611bb3565b60405180910390a1565b6112ff6007838361174f565b6040516001600160a01b0382169060ff8416907f108cdba04fa22e3af2c83669b3a439bae9df498af451d1b1a0a7da5453c97bce90600090a35050565b6001600160a01b0382166113625760405162461bcd60e51b815260040161063a90611e23565b61136e82600083611619565b6001600160a01b038216600090815260208190526040902054818110156113a75760405162461bcd60e51b815260040161063a90611cb4565b6001600160a01b03831660009081526020819052604081208383039055600280548492906113d6908490612037565b90915550506040516000906001600160a01b038516907fddf252ad1be2c89b69c2b068fc378daa952ba7f163c4a11628f55a4df523b3ef90611419908690611bd2565b60405180910390a361093a8360008461093a565b6000806114386110a3565b905060006114468286610dc9565b9050838110156114685760405162461bcd60e51b815260040161063a90611eed565b6108a48286868403611565565b61147d610ad8565b6114995760405162461bcd60e51b815260040161063a90611c86565b6006805460ff191690557f5db9ee0a495bf2e6ff9c91a7834c1ba4fdd244a5e8aa4e537bd38aeae4b073aa6112dc6110a3565b60006001600160a01b0382166114e157600080fd5b506001600160a01b03166000908152602091909152604090205460ff1690565b61150b8282610c63565b61091a57611523816001600160a01b031660146117b1565b61152e8360206117b1565b60405160200161153f929190611b3e565b60408051601f198184030181529082905262461bcd60e51b825261063a91600401611bdb565b6001600160a01b03831661158b5760405162461bcd60e51b815260040161063a90611ea9565b6001600160a01b0382166115b15760405162461bcd60e51b815260040161063a90611cf6565b6001600160a01b0380841660008181526001602090815260408083209487168084529490915290819020849055517f8c5be1e5ebec7d5bd14f71427d1e84f3dd0314c0f7b2291e5b200ac8c7c3b9259061160c908590611bd2565b60405180910390a3505050565b611621610ad8565b1561163e5760405162461bcd60e51b815260040161063a90611df9565b61164733610e86565b156116645760405162461bcd60e51b815260040161063a90611f81565b61168e7fb19546dff01e856fb3f010c267a7b1c60363cf8a4664e21cc89c26224620214e33610c63565b806116ac57506116ac60008051602061213e83398151915233610c63565b806116ca57506116ca60008051602061211e83398151915233610c63565b6116e65760405162461bcd60e51b815260040161063a90611faa565b61093a83838361093a565b60ff821660009081526020849052604090206001600160a01b03821661171657600080fd5b61172081836114cc565b61172957600080fd5b6001600160a01b03909116600090815260209190915260409020805460ff191690555050565b60ff821660009081526020849052604090206001600160a01b03821661177457600080fd5b61177e81836114cc565b1561178857600080fd5b6001600160a01b03909116600090815260209190915260409020805460ff191660011790555050565b606060006117c0836002612018565b6117cb906002612000565b67ffffffffffffffff8111156117f157634e487b7160e01b600052604160045260246000fd5b6040519080825280601f01601f19166020018201604052801561181b576020820181803683370190505b509050600360fc1b8160008151811061184457634e487b7160e01b600052603260045260246000fd5b60200101906001600160f81b031916908160001a905350600f60fb1b8160018151811061188157634e487b7160e01b600052603260045260246000fd5b60200101906001600160f81b031916908160001a90535060006118a5846002612018565b6118b0906001612000565b90505b6001811115611944576f181899199a1a9b1b9c1cb0b131b232b360811b85600f16601081106118f257634e487b7160e01b600052603260045260246000fd5b1a60f81b82828151811061191657634e487b7160e01b600052603260045260246000fd5b60200101906001600160f81b031916908160001a90535060049490941c9361193d8161207a565b90506118b3565b5083156112315760405162461bcd60e51b815260040161063a90611c0e565b80356001600160a01b038116811461053057600080fd5b60008083601f84011261198b578182fd5b50813567ffffffffffffffff8111156119a2578182fd5b60208301915083602080830285010111156119bc57600080fd5b9250929050565b6000602082840312156119d4578081fd5b61123182611963565b600080604083850312156119ef578081fd5b6119f883611963565b9150611a0660208401611963565b90509250929050565b600080600060608486031215611a23578081fd5b611a2c84611963565b9250611a3a60208501611963565b9150604084013590509250925092565b60008060408385031215611a5c578182fd5b611a6583611963565b946020939093013593505050565b60008060008060408587031215611a88578081fd5b843567ffffffffffffffff80821115611a9f578283fd5b611aab8883890161197a565b90965094506020870135915080821115611ac3578283fd5b50611ad08782880161197a565b95989497509550505050565b600060208284031215611aed578081fd5b5035919050565b60008060408385031215611b06578182fd5b82359150611a0660208401611963565b600060208284031215611b27578081fd5b81356001600160e01b031981168114611231578182fd5b60007f416363657373436f6e74726f6c3a206163636f756e742000000000000000000082528351611b7681601785016020880161204e565b7001034b99036b4b9b9b4b733903937b6329607d1b6017918401918201528351611ba781602884016020880161204e565b01602801949350505050565b6001600160a01b0391909116815260200190565b901515815260200190565b90815260200190565b6000602082528251806020840152611bfa81604085016020870161204e565b601f01601f19169190910160400192915050565b6020808252818101527f537472696e67733a20686578206c656e67746820696e73756666696369656e74604082015260600190565b60208082526023908201527f45524332303a207472616e7366657220746f20746865207a65726f206164647260408201526265737360e81b606082015260800190565b60208082526014908201527314185d5cd8589b194e881b9bdd081c185d5cd95960621b604082015260600190565b60208082526022908201527f45524332303a206275726e20616d6f756e7420657863656564732062616c616e604082015261636560f01b606082015260800190565b60208082526022908201527f45524332303a20617070726f766520746f20746865207a65726f206164647265604082015261737360f01b606082015260800190565b6020808252601d908201527f45524332303a20696e73756666696369656e7420616c6c6f77616e6365000000604082015260600190565b60208082526026908201527f45524332303a207472616e7366657220616d6f756e7420657863656564732062604082015265616c616e636560d01b606082015260800190565b60208082526024908201527f456d707479206172726179206f72206172726179206c656e677468206d69736d6040820152630c2e8c6d60e31b606082015260800190565b60208082526010908201526f14185d5cd8589b194e881c185d5cd95960821b604082015260600190565b60208082526021908201527f45524332303a206275726e2066726f6d20746865207a65726f206164647265736040820152607360f81b606082015260800190565b60208082526025908201527f45524332303a207472616e736665722066726f6d20746865207a65726f206164604082015264647265737360d81b606082015260800190565b60208082526024908201527f45524332303a20617070726f76652066726f6d20746865207a65726f206164646040820152637265737360e01b606082015260800190565b60208082526025908201527f45524332303a2064656372656173656420616c6c6f77616e63652062656c6f77604082015264207a65726f60d81b606082015260800190565b6020808252602f908201527f416363657373436f6e74726f6c3a2063616e206f6e6c792072656e6f756e636560408201526e103937b632b9903337b91039b2b63360891b606082015260800190565b6020808252600f908201526e119c99595e9959081858d8dbdd5b9d608a1b604082015260600190565b60208082526028908201527f416363657373207265737472696374656420746f20706172746963756c6172206040820152676163636f756e747360c01b606082015260800190565b60ff91909116815260200190565b60008219821115612013576120136120e7565b500190565b6000816000190483118215151615612032576120326120e7565b500290565b600082821015612049576120496120e7565b500390565b60005b83811015612069578181015183820152602001612051565b8381111561109d5750506000910152565b600081612089576120896120e7565b506000190190565b6002810460018216806120a557607f821691505b602082108114156120c657634e487b7160e01b600052602260045260246000fd5b50919050565b60006000198214156120e0576120e06120e7565b5060010190565b634e487b7160e01b600052601160045260246000fdfeed5e91ce76fc83bd4bf51d24916a0b6fa9b34212005c44254b4cb64e4bc07f3a97667070c54ef182b0f5858b034beac1b6f3089aa2d3188bb1e8929f4fa9b929a49807205ce4d355092ef5a8a18f56e8913cf4a201fbe287825b095693c21775a2646970667358221220396b6dc0de3605261d29636efbcc704d45497a114475bc875f452bdd2a51cdd464736f6c63430008000033b19546dff01e856fb3f010c267a7b1c60363cf8a4664e21cc89c26224620214e97667070c54ef182b0f5858b034beac1b6f3089aa2d3188bb1e8929f4fa9b929a49807205ce4d355092ef5a8a18f56e8913cf4a201fbe287825b095693c21775",
  "linkReferences": {},
  "deployedLinkReferences": {}
}